{
	"basic_example/Loop.sol": {
		"Loop": {
			"abi": [
				{
					"inputs": [],
					"name": "loop",
					"outputs": [],
					"stateMutability": "nonpayable",
					"type": "function"
				}
			],
			"devdoc": {
				"kind": "dev",
				"methods": {},
				"version": 1
			},
			"evm": {
				"assembly": "    /* \"basic_example/Loop.sol\":58:386  contract Loop {... */\n  mstore(0x40, 0x80)\n  callvalue\n  dup1\n  iszero\n  tag_1\n  jumpi\n  0x00\n  dup1\n  revert\ntag_1:\n  pop\n  dataSize(sub_0)\n  dup1\n  dataOffset(sub_0)\n  0x00\n  codecopy\n  0x00\n  return\nstop\n\nsub_0: assembly {\n        /* \"basic_example/Loop.sol\":58:386  contract Loop {... */\n      mstore(0x40, 0x80)\n      callvalue\n      dup1\n      iszero\n      tag_1\n      jumpi\n      0x00\n      dup1\n      revert\n    tag_1:\n      pop\n      jumpi(tag_2, lt(calldatasize, 0x04))\n      shr(0xe0, calldataload(0x00))\n      dup1\n      0xa92100cb\n      eq\n      tag_3\n      jumpi\n    tag_2:\n      0x00\n      dup1\n      revert\n        /* \"basic_example/Loop.sol\":78:384  function loop() public {... */\n    tag_3:\n      tag_4\n      tag_5\n      jump\t// in\n    tag_4:\n      stop\n    tag_5:\n        /* \"basic_example/Loop.sol\":135:141  uint i */\n      0x00\n        /* \"basic_example/Loop.sol\":131:295  for(uint i = 0; i < 10; i++){... */\n    tag_7:\n        /* \"basic_example/Loop.sol\":151:153  10 */\n      0x0a\n        /* \"basic_example/Loop.sol\":147:148  i */\n      dup2\n        /* \"basic_example/Loop.sol\":147:153  i < 10 */\n      lt\n        /* \"basic_example/Loop.sol\":131:295  for(uint i = 0; i < 10; i++){... */\n      iszero\n      tag_8\n      jumpi\n        /* \"basic_example/Loop.sol\":181:182  3 */\n      0x03\n        /* \"basic_example/Loop.sol\":176:177  i */\n      dup2\n        /* \"basic_example/Loop.sol\":176:182  i == 3 */\n      sub\n        /* \"basic_example/Loop.sol\":173:224  if(i == 3){... */\n      iszero\n        /* \"basic_example/Loop.sol\":201:209  continue */\n      tag_9\n        /* \"basic_example/Loop.sol\":173:224  if(i == 3){... */\n      jumpi\n        /* \"basic_example/Loop.sol\":245:246  5 */\n      0x05\n        /* \"basic_example/Loop.sol\":240:241  i */\n      dup2\n        /* \"basic_example/Loop.sol\":240:246  i == 5 */\n      sub\n        /* \"basic_example/Loop.sol\":237:285  if(i == 5){... */\n      iszero\n        /* \"basic_example/Loop.sol\":265:270  break */\n      tag_8\n        /* \"basic_example/Loop.sol\":237:285  if(i == 5){... */\n      jumpi\n        /* \"basic_example/Loop.sol\":131:295  for(uint i = 0; i < 10; i++){... */\n    tag_9:\n        /* \"basic_example/Loop.sol\":155:158  i++ */\n      dup1\n      dup1\n      tag_12\n      swap1\n      tag_13\n      jump\t// in\n    tag_12:\n      swap2\n      pop\n      pop\n        /* \"basic_example/Loop.sol\":131:295  for(uint i = 0; i < 10; i++){... */\n      jump(tag_7)\n    tag_8:\n      pop\n        /* \"basic_example/Loop.sol\":321:327  uint j */\n      0x00\n        /* \"basic_example/Loop.sol\":337:378  while(j < 10){... */\n    tag_14:\n        /* \"basic_example/Loop.sol\":347:349  10 */\n      0x0a\n        /* \"basic_example/Loop.sol\":343:344  j */\n      dup2\n        /* \"basic_example/Loop.sol\":343:349  j < 10 */\n      lt\n        /* \"basic_example/Loop.sol\":337:378  while(j < 10){... */\n      iszero\n      tag_15\n      jumpi\n        /* \"basic_example/Loop.sol\":364:367  j++ */\n      dup1\n      dup1\n      tag_16\n      swap1\n      tag_13\n      jump\t// in\n    tag_16:\n      swap2\n      pop\n      pop\n        /* \"basic_example/Loop.sol\":337:378  while(j < 10){... */\n      jump(tag_14)\n    tag_15:\n        /* \"basic_example/Loop.sol\":101:384  {... */\n      pop\n        /* \"basic_example/Loop.sol\":78:384  function loop() public {... */\n      jump\t// out\n        /* \"#utility.yul\":7:187   */\n    tag_17:\n        /* \"#utility.yul\":55:132   */\n      0x4e487b7100000000000000000000000000000000000000000000000000000000\n        /* \"#utility.yul\":52:53   */\n      0x00\n        /* \"#utility.yul\":45:133   */\n      mstore\n        /* \"#utility.yul\":152:156   */\n      0x11\n        /* \"#utility.yul\":149:150   */\n      0x04\n        /* \"#utility.yul\":142:157   */\n      mstore\n        /* \"#utility.yul\":176:180   */\n      0x24\n        /* \"#utility.yul\":173:174   */\n      0x00\n        /* \"#utility.yul\":166:181   */\n      revert\n        /* \"#utility.yul\":193:270   */\n    tag_18:\n        /* \"#utility.yul\":230:237   */\n      0x00\n        /* \"#utility.yul\":259:264   */\n      dup2\n        /* \"#utility.yul\":248:264   */\n      swap1\n      pop\n        /* \"#utility.yul\":193:270   */\n      swap2\n      swap1\n      pop\n      jump\t// out\n        /* \"#utility.yul\":276:509   */\n    tag_13:\n        /* \"#utility.yul\":315:318   */\n      0x00\n        /* \"#utility.yul\":338:362   */\n      tag_23\n        /* \"#utility.yul\":356:361   */\n      dup3\n        /* \"#utility.yul\":338:362   */\n      tag_18\n      jump\t// in\n    tag_23:\n        /* \"#utility.yul\":329:362   */\n      swap2\n      pop\n        /* \"#utility.yul\":384:450   */\n      0xffffffffffffffffffffffffffffffffffffffffffffffffffffffffffffffff\n        /* \"#utility.yul\":377:382   */\n      dup3\n        /* \"#utility.yul\":374:451   */\n      sub\n        /* \"#utility.yul\":371:474   */\n      tag_24\n      jumpi\n        /* \"#utility.yul\":454:472   */\n      tag_25\n      tag_17\n      jump\t// in\n    tag_25:\n        /* \"#utility.yul\":371:474   */\n    tag_24:\n        /* \"#utility.yul\":501:502   */\n      0x01\n        /* \"#utility.yul\":494:499   */\n      dup3\n        /* \"#utility.yul\":490:503   */\n      add\n        /* \"#utility.yul\":483:503   */\n      swap1\n      pop\n        /* \"#utility.yul\":276:509   */\n      swap2\n      swap1\n      pop\n      jump\t// out\n\n    auxdata: 0xa2646970667358221220990b3927cb144488adce8ec71159a64ed72ffaf4d62e67e31f1fc7df8678977164736f6c634300080d0033\n}\n",
				"bytecode": {
					"linkReferences": {},
					"object": "608060405234801561001057600080fd5b50610132806100206000396000f3fe6080604052348015600f57600080fd5b506004361060285760003560e01c8063a92100cb14602d575b600080fd5b60336035565b005b60005b600a811015606157600381031560515760058103156061575b8080605a9060b9565b9150506038565b5060005b600a811015607d57808060769060b9565b9150506065565b50565b7f4e487b7100000000000000000000000000000000000000000000000000000000600052601160045260246000fd5b6000819050919050565b600060c28260af565b91507fffffffffffffffffffffffffffffffffffffffffffffffffffffffffffffffff820360f15760f06080565b5b60018201905091905056fea2646970667358221220990b3927cb144488adce8ec71159a64ed72ffaf4d62e67e31f1fc7df8678977164736f6c634300080d0033",
					"opcodes": "PUSH1 0x80 PUSH1 0x40 MSTORE CALLVALUE DUP1 ISZERO PUSH2 0x10 JUMPI PUSH1 0x0 DUP1 REVERT JUMPDEST POP PUSH2 0x132 DUP1 PUSH2 0x20 PUSH1 0x0 CODECOPY PUSH1 0x0 RETURN INVALID PUSH1 0x80 PUSH1 0x40 MSTORE CALLVALUE DUP1 ISZERO PUSH1 0xF JUMPI PUSH1 0x0 DUP1 REVERT JUMPDEST POP PUSH1 0x4 CALLDATASIZE LT PUSH1 0x28 JUMPI PUSH1 0x0 CALLDATALOAD PUSH1 0xE0 SHR DUP1 PUSH4 0xA92100CB EQ PUSH1 0x2D JUMPI JUMPDEST PUSH1 0x0 DUP1 REVERT JUMPDEST PUSH1 0x33 PUSH1 0x35 JUMP JUMPDEST STOP JUMPDEST PUSH1 0x0 JUMPDEST PUSH1 0xA DUP2 LT ISZERO PUSH1 0x61 JUMPI PUSH1 0x3 DUP2 SUB ISZERO PUSH1 0x51 JUMPI PUSH1 0x5 DUP2 SUB ISZERO PUSH1 0x61 JUMPI JUMPDEST DUP1 DUP1 PUSH1 0x5A SWAP1 PUSH1 0xB9 JUMP JUMPDEST SWAP2 POP POP PUSH1 0x38 JUMP JUMPDEST POP PUSH1 0x0 JUMPDEST PUSH1 0xA DUP2 LT ISZERO PUSH1 0x7D JUMPI DUP1 DUP1 PUSH1 0x76 SWAP1 PUSH1 0xB9 JUMP JUMPDEST SWAP2 POP POP PUSH1 0x65 JUMP JUMPDEST POP JUMP JUMPDEST PUSH32 0x4E487B7100000000000000000000000000000000000000000000000000000000 PUSH1 0x0 MSTORE PUSH1 0x11 PUSH1 0x4 MSTORE PUSH1 0x24 PUSH1 0x0 REVERT JUMPDEST PUSH1 0x0 DUP2 SWAP1 POP SWAP2 SWAP1 POP JUMP JUMPDEST PUSH1 0x0 PUSH1 0xC2 DUP3 PUSH1 0xAF JUMP JUMPDEST SWAP2 POP PUSH32 0xFFFFFFFFFFFFFFFFFFFFFFFFFFFFFFFFFFFFFFFFFFFFFFFFFFFFFFFFFFFFFFFF DUP3 SUB PUSH1 0xF1 JUMPI PUSH1 0xF0 PUSH1 0x80 JUMP JUMPDEST JUMPDEST PUSH1 0x1 DUP3 ADD SWAP1 POP SWAP2 SWAP1 POP JUMP INVALID LOG2 PUSH5 0x6970667358 0x22 SLT KECCAK256 SWAP10 SIGNEXTEND CODECOPY 0x27 0xCB EQ DIFFICULTY DUP9 0xAD 0xCE DUP15 0xC7 GT MSIZE 0xA6 0x4E 0xD7 0x2F STATICCALL DELEGATECALL 0xD6 0x2E PUSH8 0xE31F1FC7DF867897 PUSH18 0x64736F6C634300080D003300000000000000 "
				},
				"gasEstimates": {
					"creation": {
						"codeDepositCost": "61200",
						"executionCost": "111",
						"totalCost": "61311"
					},
					"external": {
						"loop()": "infinite"
					}
				},
				"methodIdentifiers": {
					"loop()": "a92100cb"
				}
			},
			"storageLayout": {
				"storage": [],
				"types": null
			},
			"userdoc": {
				"kind": "user",
				"methods": {},
				"version": 1
			}
		}
	}
}