{
	"basic_example/DataLocations.sol": {
		"DataLocations": {
			"abi": [
				{
					"inputs": [
						{
							"internalType": "uint256",
							"name": "",
							"type": "uint256"
						}
					],
					"name": "arr",
					"outputs": [
						{
							"internalType": "uint256",
							"name": "",
							"type": "uint256"
						}
					],
					"stateMutability": "view",
					"type": "function"
				},
				{
					"inputs": [],
					"name": "f",
					"outputs": [],
					"stateMutability": "nonpayable",
					"type": "function"
				},
				{
					"inputs": [
						{
							"internalType": "uint256[]",
							"name": "_arr",
							"type": "uint256[]"
						}
					],
					"name": "g",
					"outputs": [
						{
							"internalType": "uint256[]",
							"name": "",
							"type": "uint256[]"
						}
					],
					"stateMutability": "nonpayable",
					"type": "function"
				},
				{
					"inputs": [
						{
							"internalType": "uint256",
							"name": "i",
							"type": "uint256"
						}
					],
					"name": "getFoo",
					"outputs": [
						{
							"internalType": "uint256",
							"name": "",
							"type": "uint256"
						}
					],
					"stateMutability": "view",
					"type": "function"
				},
				{
					"inputs": [
						{
							"internalType": "uint256",
							"name": "i",
							"type": "uint256"
						}
					],
					"name": "getStruct",
					"outputs": [
						{
							"components": [
								{
									"internalType": "uint256",
									"name": "foo",
									"type": "uint256"
								}
							],
							"internalType": "struct DataLocations.MyStruct",
							"name": "",
							"type": "tuple"
						}
					],
					"stateMutability": "view",
					"type": "function"
				},
				{
					"inputs": [
						{
							"internalType": "uint256[]",
							"name": "_arr",
							"type": "uint256[]"
						}
					],
					"name": "h",
					"outputs": [],
					"stateMutability": "nonpayable",
					"type": "function"
				}
			],
			"devdoc": {
				"kind": "dev",
				"methods": {},
				"version": 1
			},
			"evm": {
				"assembly": "    /* \"basic_example/DataLocations.sol\":58:1188  contract DataLocations {... */\n  mstore(0x40, 0x80)\n  callvalue\n  dup1\n  iszero\n  tag_1\n  jumpi\n  0x00\n  dup1\n  revert\ntag_1:\n  pop\n  dataSize(sub_0)\n  dup1\n  dataOffset(sub_0)\n  0x00\n  codecopy\n  0x00\n  return\nstop\n\nsub_0: assembly {\n        /* \"basic_example/DataLocations.sol\":58:1188  contract DataLocations {... */\n      mstore(0x40, 0x80)\n      callvalue\n      dup1\n      iszero\n      tag_1\n      jumpi\n      0x00\n      dup1\n      revert\n    tag_1:\n      pop\n      jumpi(tag_2, lt(calldatasize, 0x04))\n      shr(0xe0, calldataload(0x00))\n      dup1\n      0x26121ff0\n      eq\n      tag_3\n      jumpi\n      dup1\n      0x40dcbb08\n      eq\n      tag_4\n      jumpi\n      dup1\n      0x569703c9\n      eq\n      tag_5\n      jumpi\n      dup1\n      0x71e5ee5f\n      eq\n      tag_6\n      jumpi\n      dup1\n      0xbaf71609\n      eq\n      tag_7\n      jumpi\n      dup1\n      0xcdfa8495\n      eq\n      tag_8\n      jumpi\n    tag_2:\n      0x00\n      dup1\n      revert\n        /* \"basic_example/DataLocations.sol\":245:562  function f() public {... */\n    tag_3:\n      tag_9\n      tag_10\n      jump\t// in\n    tag_9:\n      stop\n        /* \"basic_example/DataLocations.sol\":1092:1185  function h(uint[] calldata _arr) external {... */\n    tag_4:\n      tag_11\n      0x04\n      dup1\n      calldatasize\n      sub\n      dup2\n      add\n      swap1\n      tag_12\n      swap2\n      swap1\n      tag_13\n      jump\t// in\n    tag_12:\n      tag_14\n      jump\t// in\n    tag_11:\n      stop\n        /* \"basic_example/DataLocations.sol\":672:761  function getFoo(uint i) public view returns(uint){... */\n    tag_5:\n      tag_15\n      0x04\n      dup1\n      calldatasize\n      sub\n      dup2\n      add\n      swap1\n      tag_16\n      swap2\n      swap1\n      tag_17\n      jump\t// in\n    tag_16:\n      tag_18\n      jump\t// in\n    tag_15:\n      mload(0x40)\n      tag_19\n      swap2\n      swap1\n      tag_20\n      jump\t// in\n    tag_19:\n      mload(0x40)\n      dup1\n      swap2\n      sub\n      swap1\n      return\n        /* \"basic_example/DataLocations.sol\":87:107  uint256[] public arr */\n    tag_6:\n      tag_21\n      0x04\n      dup1\n      calldatasize\n      sub\n      dup2\n      add\n      swap1\n      tag_22\n      swap2\n      swap1\n      tag_17\n      jump\t// in\n    tag_22:\n      tag_23\n      jump\t// in\n    tag_21:\n      mload(0x40)\n      tag_24\n      swap2\n      swap1\n      tag_20\n      jump\t// in\n    tag_24:\n      mload(0x40)\n      dup1\n      swap2\n      sub\n      swap1\n      return\n        /* \"basic_example/DataLocations.sol\":975:1086  function g(uint[] memory _arr) public returns (uint[] memory) {... */\n    tag_7:\n      tag_25\n      0x04\n      dup1\n      calldatasize\n      sub\n      dup2\n      add\n      swap1\n      tag_26\n      swap2\n      swap1\n      tag_27\n      jump\t// in\n    tag_26:\n      tag_28\n      jump\t// in\n    tag_25:\n      mload(0x40)\n      tag_29\n      swap2\n      swap1\n      tag_30\n      jump\t// in\n    tag_29:\n      mload(0x40)\n      dup1\n      swap2\n      sub\n      swap1\n      return\n        /* \"basic_example/DataLocations.sol\":568:667  function getStruct(uint i) public view returns(MyStruct memory){... */\n    tag_8:\n      tag_31\n      0x04\n      dup1\n      calldatasize\n      sub\n      dup2\n      add\n      swap1\n      tag_32\n      swap2\n      swap1\n      tag_17\n      jump\t// in\n    tag_32:\n      tag_33\n      jump\t// in\n    tag_31:\n      mload(0x40)\n      tag_34\n      swap2\n      swap1\n      tag_35\n      jump\t// in\n    tag_34:\n      mload(0x40)\n      dup1\n      swap2\n      sub\n      swap1\n      return\n        /* \"basic_example/DataLocations.sol\":245:562  function f() public {... */\n    tag_10:\n        /* \"basic_example/DataLocations.sol\":275:301  _f(arr, map, myStructs[1]) */\n      tag_37\n        /* \"basic_example/DataLocations.sol\":278:281  arr */\n      0x00\n        /* \"basic_example/DataLocations.sol\":283:286  map */\n      0x01\n        /* \"basic_example/DataLocations.sol\":288:297  myStructs */\n      0x02\n        /* \"basic_example/DataLocations.sol\":288:300  myStructs[1] */\n      0x00\n        /* \"basic_example/DataLocations.sol\":298:299  1 */\n      0x01\n        /* \"basic_example/DataLocations.sol\":288:300  myStructs[1] */\n      dup2\n      mstore\n      0x20\n      add\n      swap1\n      dup2\n      mstore\n      0x20\n      add\n      0x00\n      keccak256\n        /* \"basic_example/DataLocations.sol\":275:277  _f */\n      tag_38\n        /* \"basic_example/DataLocations.sol\":275:301  _f(arr, map, myStructs[1]) */\n      jump\t// in\n    tag_37:\n        /* \"basic_example/DataLocations.sol\":352:377  MyStruct storage myStruct */\n      0x00\n        /* \"basic_example/DataLocations.sol\":380:389  myStructs */\n      0x02\n        /* \"basic_example/DataLocations.sol\":380:392  myStructs[1] */\n      0x00\n        /* \"basic_example/DataLocations.sol\":390:391  1 */\n      0x01\n        /* \"basic_example/DataLocations.sol\":380:392  myStructs[1] */\n      dup2\n      mstore\n      0x20\n      add\n      swap1\n      dup2\n      mstore\n      0x20\n      add\n      0x00\n      keccak256\n        /* \"basic_example/DataLocations.sol\":352:392  MyStruct storage myStruct = myStructs[1] */\n      swap1\n      pop\n        /* \"basic_example/DataLocations.sol\":417:420  111 */\n      0x6f\n        /* \"basic_example/DataLocations.sol\":402:410  myStruct */\n      dup2\n        /* \"basic_example/DataLocations.sol\":402:414  myStruct.foo */\n      0x00\n      add\n        /* \"basic_example/DataLocations.sol\":402:420  myStruct.foo = 111 */\n      dup2\n      swap1\n      sstore\n      pop\n        /* \"basic_example/DataLocations.sol\":481:508  MyStruct memory myMemStruct */\n      0x00\n        /* \"basic_example/DataLocations.sol\":511:520  myStructs */\n      0x02\n        /* \"basic_example/DataLocations.sol\":511:523  myStructs[0] */\n      0x00\n        /* \"basic_example/DataLocations.sol\":521:522  0 */\n      dup1\n        /* \"basic_example/DataLocations.sol\":511:523  myStructs[0] */\n      dup2\n      mstore\n      0x20\n      add\n      swap1\n      dup2\n      mstore\n      0x20\n      add\n      0x00\n      keccak256\n        /* \"basic_example/DataLocations.sol\":481:523  MyStruct memory myMemStruct = myStructs[0] */\n      mload(0x40)\n      dup1\n      0x20\n      add\n      0x40\n      mstore\n      swap1\n      dup2\n      0x00\n      dup3\n      add\n      sload\n      dup2\n      mstore\n      pop\n      pop\n      swap1\n      pop\n        /* \"basic_example/DataLocations.sol\":551:554  123 */\n      0x7b\n        /* \"basic_example/DataLocations.sol\":533:544  myMemStruct */\n      dup2\n        /* \"basic_example/DataLocations.sol\":533:548  myMemStruct.foo */\n      0x00\n      add\n        /* \"basic_example/DataLocations.sol\":533:554  myMemStruct.foo = 123 */\n      dup2\n      dup2\n      mstore\n      pop\n      pop\n        /* \"basic_example/DataLocations.sol\":265:562  {... */\n      pop\n      pop\n        /* \"basic_example/DataLocations.sol\":245:562  function f() public {... */\n      jump\t// out\n        /* \"basic_example/DataLocations.sol\":1092:1185  function h(uint[] calldata _arr) external {... */\n    tag_14:\n      pop\n      pop\n      jump\t// out\n        /* \"basic_example/DataLocations.sol\":672:761  function getFoo(uint i) public view returns(uint){... */\n    tag_18:\n        /* \"basic_example/DataLocations.sol\":716:720  uint */\n      0x00\n        /* \"basic_example/DataLocations.sol\":738:747  myStructs */\n      0x02\n        /* \"basic_example/DataLocations.sol\":738:750  myStructs[i] */\n      0x00\n        /* \"basic_example/DataLocations.sol\":748:749  i */\n      dup4\n        /* \"basic_example/DataLocations.sol\":738:750  myStructs[i] */\n      dup2\n      mstore\n      0x20\n      add\n      swap1\n      dup2\n      mstore\n      0x20\n      add\n      0x00\n      keccak256\n        /* \"basic_example/DataLocations.sol\":738:754  myStructs[i].foo */\n      0x00\n      add\n      sload\n        /* \"basic_example/DataLocations.sol\":731:754  return myStructs[i].foo */\n      swap1\n      pop\n        /* \"basic_example/DataLocations.sol\":672:761  function getFoo(uint i) public view returns(uint){... */\n      swap2\n      swap1\n      pop\n      jump\t// out\n        /* \"basic_example/DataLocations.sol\":87:107  uint256[] public arr */\n    tag_23:\n      0x00\n      dup2\n      dup2\n      sload\n      dup2\n      lt\n      tag_41\n      jumpi\n      0x00\n      dup1\n      revert\n    tag_41:\n      swap1\n      0x00\n      mstore\n      keccak256(0x00, 0x20)\n      add\n      0x00\n      swap2\n      pop\n      swap1\n      pop\n      sload\n      dup2\n      jump\t// out\n        /* \"basic_example/DataLocations.sol\":975:1086  function g(uint[] memory _arr) public returns (uint[] memory) {... */\n    tag_28:\n        /* \"basic_example/DataLocations.sol\":1022:1035  uint[] memory */\n      0x60\n        /* \"basic_example/DataLocations.sol\":975:1086  function g(uint[] memory _arr) public returns (uint[] memory) {... */\n      swap2\n      swap1\n      pop\n      jump\t// out\n        /* \"basic_example/DataLocations.sol\":568:667  function getStruct(uint i) public view returns(MyStruct memory){... */\n    tag_33:\n        /* \"basic_example/DataLocations.sol\":615:630  MyStruct memory */\n      tag_44\n      tag_45\n      jump\t// in\n    tag_44:\n        /* \"basic_example/DataLocations.sol\":648:657  myStructs */\n      0x02\n        /* \"basic_example/DataLocations.sol\":648:660  myStructs[i] */\n      0x00\n        /* \"basic_example/DataLocations.sol\":658:659  i */\n      dup4\n        /* \"basic_example/DataLocations.sol\":648:660  myStructs[i] */\n      dup2\n      mstore\n      0x20\n      add\n      swap1\n      dup2\n      mstore\n      0x20\n      add\n      0x00\n      keccak256\n        /* \"basic_example/DataLocations.sol\":641:660  return myStructs[i] */\n      mload(0x40)\n      dup1\n      0x20\n      add\n      0x40\n      mstore\n      swap1\n      dup2\n      0x00\n      dup3\n      add\n      sload\n      dup2\n      mstore\n      pop\n      pop\n      swap1\n      pop\n        /* \"basic_example/DataLocations.sol\":568:667  function getStruct(uint i) public view returns(MyStruct memory){... */\n      swap2\n      swap1\n      pop\n      jump\t// out\n        /* \"basic_example/DataLocations.sol\":767:930  function _f(uint[] storage _arr, mapping(uint => address) storage _map, MyStruct storage _myStruct) internal {... */\n    tag_38:\n      pop\n      pop\n      pop\n      jump\t// out\n    tag_45:\n      mload(0x40)\n      dup1\n      0x20\n      add\n      0x40\n      mstore\n      dup1\n      0x00\n      dup2\n      mstore\n      pop\n      swap1\n      jump\t// out\n        /* \"#utility.yul\":7:82   */\n    tag_48:\n        /* \"#utility.yul\":40:46   */\n      0x00\n        /* \"#utility.yul\":73:75   */\n      0x40\n        /* \"#utility.yul\":67:76   */\n      mload\n        /* \"#utility.yul\":57:76   */\n      swap1\n      pop\n        /* \"#utility.yul\":7:82   */\n      swap1\n      jump\t// out\n        /* \"#utility.yul\":88:205   */\n    tag_49:\n        /* \"#utility.yul\":197:198   */\n      0x00\n        /* \"#utility.yul\":194:195   */\n      dup1\n        /* \"#utility.yul\":187:199   */\n      revert\n        /* \"#utility.yul\":211:328   */\n    tag_50:\n        /* \"#utility.yul\":320:321   */\n      0x00\n        /* \"#utility.yul\":317:318   */\n      dup1\n        /* \"#utility.yul\":310:322   */\n      revert\n        /* \"#utility.yul\":334:451   */\n    tag_51:\n        /* \"#utility.yul\":443:444   */\n      0x00\n        /* \"#utility.yul\":440:441   */\n      dup1\n        /* \"#utility.yul\":433:445   */\n      revert\n        /* \"#utility.yul\":457:574   */\n    tag_52:\n        /* \"#utility.yul\":566:567   */\n      0x00\n        /* \"#utility.yul\":563:564   */\n      dup1\n        /* \"#utility.yul\":556:568   */\n      revert\n        /* \"#utility.yul\":580:697   */\n    tag_53:\n        /* \"#utility.yul\":689:690   */\n      0x00\n        /* \"#utility.yul\":686:687   */\n      dup1\n        /* \"#utility.yul\":679:691   */\n      revert\n        /* \"#utility.yul\":720:1288   */\n    tag_54:\n        /* \"#utility.yul\":793:801   */\n      0x00\n        /* \"#utility.yul\":803:809   */\n      dup1\n        /* \"#utility.yul\":853:856   */\n      dup4\n        /* \"#utility.yul\":846:850   */\n      0x1f\n        /* \"#utility.yul\":838:844   */\n      dup5\n        /* \"#utility.yul\":834:851   */\n      add\n        /* \"#utility.yul\":830:857   */\n      slt\n        /* \"#utility.yul\":820:942   */\n      tag_82\n      jumpi\n        /* \"#utility.yul\":861:940   */\n      tag_83\n      tag_51\n      jump\t// in\n    tag_83:\n        /* \"#utility.yul\":820:942   */\n    tag_82:\n        /* \"#utility.yul\":974:980   */\n      dup3\n        /* \"#utility.yul\":961:981   */\n      calldataload\n        /* \"#utility.yul\":951:981   */\n      swap1\n      pop\n        /* \"#utility.yul\":1004:1022   */\n      0xffffffffffffffff\n        /* \"#utility.yul\":996:1002   */\n      dup2\n        /* \"#utility.yul\":993:1023   */\n      gt\n        /* \"#utility.yul\":990:1107   */\n      iszero\n      tag_84\n      jumpi\n        /* \"#utility.yul\":1026:1105   */\n      tag_85\n      tag_52\n      jump\t// in\n    tag_85:\n        /* \"#utility.yul\":990:1107   */\n    tag_84:\n        /* \"#utility.yul\":1140:1144   */\n      0x20\n        /* \"#utility.yul\":1132:1138   */\n      dup4\n        /* \"#utility.yul\":1128:1145   */\n      add\n        /* \"#utility.yul\":1116:1145   */\n      swap2\n      pop\n        /* \"#utility.yul\":1194:1197   */\n      dup4\n        /* \"#utility.yul\":1186:1190   */\n      0x20\n        /* \"#utility.yul\":1178:1184   */\n      dup3\n        /* \"#utility.yul\":1174:1191   */\n      mul\n        /* \"#utility.yul\":1164:1172   */\n      dup4\n        /* \"#utility.yul\":1160:1192   */\n      add\n        /* \"#utility.yul\":1157:1198   */\n      gt\n        /* \"#utility.yul\":1154:1282   */\n      iszero\n      tag_86\n      jumpi\n        /* \"#utility.yul\":1201:1280   */\n      tag_87\n      tag_53\n      jump\t// in\n    tag_87:\n        /* \"#utility.yul\":1154:1282   */\n    tag_86:\n        /* \"#utility.yul\":720:1288   */\n      swap3\n      pop\n      swap3\n      swap1\n      pop\n      jump\t// out\n        /* \"#utility.yul\":1294:1853   */\n    tag_13:\n        /* \"#utility.yul\":1380:1386   */\n      0x00\n        /* \"#utility.yul\":1388:1394   */\n      dup1\n        /* \"#utility.yul\":1437:1439   */\n      0x20\n        /* \"#utility.yul\":1425:1434   */\n      dup4\n        /* \"#utility.yul\":1416:1423   */\n      dup6\n        /* \"#utility.yul\":1412:1435   */\n      sub\n        /* \"#utility.yul\":1408:1440   */\n      slt\n        /* \"#utility.yul\":1405:1524   */\n      iszero\n      tag_89\n      jumpi\n        /* \"#utility.yul\":1443:1522   */\n      tag_90\n      tag_49\n      jump\t// in\n    tag_90:\n        /* \"#utility.yul\":1405:1524   */\n    tag_89:\n        /* \"#utility.yul\":1591:1592   */\n      0x00\n        /* \"#utility.yul\":1580:1589   */\n      dup4\n        /* \"#utility.yul\":1576:1593   */\n      add\n        /* \"#utility.yul\":1563:1594   */\n      calldataload\n        /* \"#utility.yul\":1621:1639   */\n      0xffffffffffffffff\n        /* \"#utility.yul\":1613:1619   */\n      dup2\n        /* \"#utility.yul\":1610:1640   */\n      gt\n        /* \"#utility.yul\":1607:1724   */\n      iszero\n      tag_91\n      jumpi\n        /* \"#utility.yul\":1643:1722   */\n      tag_92\n      tag_50\n      jump\t// in\n    tag_92:\n        /* \"#utility.yul\":1607:1724   */\n    tag_91:\n        /* \"#utility.yul\":1756:1836   */\n      tag_93\n        /* \"#utility.yul\":1828:1835   */\n      dup6\n        /* \"#utility.yul\":1819:1825   */\n      dup3\n        /* \"#utility.yul\":1808:1817   */\n      dup7\n        /* \"#utility.yul\":1804:1826   */\n      add\n        /* \"#utility.yul\":1756:1836   */\n      tag_54\n      jump\t// in\n    tag_93:\n        /* \"#utility.yul\":1738:1836   */\n      swap3\n      pop\n      swap3\n      pop\n        /* \"#utility.yul\":1534:1846   */\n      pop\n        /* \"#utility.yul\":1294:1853   */\n      swap3\n      pop\n      swap3\n      swap1\n      pop\n      jump\t// out\n        /* \"#utility.yul\":1859:1936   */\n    tag_55:\n        /* \"#utility.yul\":1896:1903   */\n      0x00\n        /* \"#utility.yul\":1925:1930   */\n      dup2\n        /* \"#utility.yul\":1914:1930   */\n      swap1\n      pop\n        /* \"#utility.yul\":1859:1936   */\n      swap2\n      swap1\n      pop\n      jump\t// out\n        /* \"#utility.yul\":1942:2064   */\n    tag_56:\n        /* \"#utility.yul\":2015:2039   */\n      tag_96\n        /* \"#utility.yul\":2033:2038   */\n      dup2\n        /* \"#utility.yul\":2015:2039   */\n      tag_55\n      jump\t// in\n    tag_96:\n        /* \"#utility.yul\":2008:2013   */\n      dup2\n        /* \"#utility.yul\":2005:2040   */\n      eq\n        /* \"#utility.yul\":1995:2058   */\n      tag_97\n      jumpi\n        /* \"#utility.yul\":2054:2055   */\n      0x00\n        /* \"#utility.yul\":2051:2052   */\n      dup1\n        /* \"#utility.yul\":2044:2056   */\n      revert\n        /* \"#utility.yul\":1995:2058   */\n    tag_97:\n        /* \"#utility.yul\":1942:2064   */\n      pop\n      jump\t// out\n        /* \"#utility.yul\":2070:2209   */\n    tag_57:\n        /* \"#utility.yul\":2116:2121   */\n      0x00\n        /* \"#utility.yul\":2154:2160   */\n      dup2\n        /* \"#utility.yul\":2141:2161   */\n      calldataload\n        /* \"#utility.yul\":2132:2161   */\n      swap1\n      pop\n        /* \"#utility.yul\":2170:2203   */\n      tag_99\n        /* \"#utility.yul\":2197:2202   */\n      dup2\n        /* \"#utility.yul\":2170:2203   */\n      tag_56\n      jump\t// in\n    tag_99:\n        /* \"#utility.yul\":2070:2209   */\n      swap3\n      swap2\n      pop\n      pop\n      jump\t// out\n        /* \"#utility.yul\":2215:2544   */\n    tag_17:\n        /* \"#utility.yul\":2274:2280   */\n      0x00\n        /* \"#utility.yul\":2323:2325   */\n      0x20\n        /* \"#utility.yul\":2311:2320   */\n      dup3\n        /* \"#utility.yul\":2302:2309   */\n      dup5\n        /* \"#utility.yul\":2298:2321   */\n      sub\n        /* \"#utility.yul\":2294:2326   */\n      slt\n        /* \"#utility.yul\":2291:2410   */\n      iszero\n      tag_101\n      jumpi\n        /* \"#utility.yul\":2329:2408   */\n      tag_102\n      tag_49\n      jump\t// in\n    tag_102:\n        /* \"#utility.yul\":2291:2410   */\n    tag_101:\n        /* \"#utility.yul\":2449:2450   */\n      0x00\n        /* \"#utility.yul\":2474:2527   */\n      tag_103\n        /* \"#utility.yul\":2519:2526   */\n      dup5\n        /* \"#utility.yul\":2510:2516   */\n      dup3\n        /* \"#utility.yul\":2499:2508   */\n      dup6\n        /* \"#utility.yul\":2495:2517   */\n      add\n        /* \"#utility.yul\":2474:2527   */\n      tag_57\n      jump\t// in\n    tag_103:\n        /* \"#utility.yul\":2464:2527   */\n      swap2\n      pop\n        /* \"#utility.yul\":2420:2537   */\n      pop\n        /* \"#utility.yul\":2215:2544   */\n      swap3\n      swap2\n      pop\n      pop\n      jump\t// out\n        /* \"#utility.yul\":2550:2668   */\n    tag_58:\n        /* \"#utility.yul\":2637:2661   */\n      tag_105\n        /* \"#utility.yul\":2655:2660   */\n      dup2\n        /* \"#utility.yul\":2637:2661   */\n      tag_55\n      jump\t// in\n    tag_105:\n        /* \"#utility.yul\":2632:2635   */\n      dup3\n        /* \"#utility.yul\":2625:2662   */\n      mstore\n        /* \"#utility.yul\":2550:2668   */\n      pop\n      pop\n      jump\t// out\n        /* \"#utility.yul\":2674:2896   */\n    tag_20:\n        /* \"#utility.yul\":2767:2771   */\n      0x00\n        /* \"#utility.yul\":2805:2807   */\n      0x20\n        /* \"#utility.yul\":2794:2803   */\n      dup3\n        /* \"#utility.yul\":2790:2808   */\n      add\n        /* \"#utility.yul\":2782:2808   */\n      swap1\n      pop\n        /* \"#utility.yul\":2818:2889   */\n      tag_107\n        /* \"#utility.yul\":2886:2887   */\n      0x00\n        /* \"#utility.yul\":2875:2884   */\n      dup4\n        /* \"#utility.yul\":2871:2888   */\n      add\n        /* \"#utility.yul\":2862:2868   */\n      dup5\n        /* \"#utility.yul\":2818:2889   */\n      tag_58\n      jump\t// in\n    tag_107:\n        /* \"#utility.yul\":2674:2896   */\n      swap3\n      swap2\n      pop\n      pop\n      jump\t// out\n        /* \"#utility.yul\":2902:3004   */\n    tag_59:\n        /* \"#utility.yul\":2943:2949   */\n      0x00\n        /* \"#utility.yul\":2994:2996   */\n      0x1f\n        /* \"#utility.yul\":2990:2997   */\n      not\n        /* \"#utility.yul\":2985:2987   */\n      0x1f\n        /* \"#utility.yul\":2978:2983   */\n      dup4\n        /* \"#utility.yul\":2974:2988   */\n      add\n        /* \"#utility.yul\":2970:2998   */\n      and\n        /* \"#utility.yul\":2960:2998   */\n      swap1\n      pop\n        /* \"#utility.yul\":2902:3004   */\n      swap2\n      swap1\n      pop\n      jump\t// out\n        /* \"#utility.yul\":3010:3190   */\n    tag_60:\n        /* \"#utility.yul\":3058:3135   */\n      0x4e487b7100000000000000000000000000000000000000000000000000000000\n        /* \"#utility.yul\":3055:3056   */\n      0x00\n        /* \"#utility.yul\":3048:3136   */\n      mstore\n        /* \"#utility.yul\":3155:3159   */\n      0x41\n        /* \"#utility.yul\":3152:3153   */\n      0x04\n        /* \"#utility.yul\":3145:3160   */\n      mstore\n        /* \"#utility.yul\":3179:3183   */\n      0x24\n        /* \"#utility.yul\":3176:3177   */\n      0x00\n        /* \"#utility.yul\":3169:3184   */\n      revert\n        /* \"#utility.yul\":3196:3477   */\n    tag_61:\n        /* \"#utility.yul\":3279:3306   */\n      tag_111\n        /* \"#utility.yul\":3301:3305   */\n      dup3\n        /* \"#utility.yul\":3279:3306   */\n      tag_59\n      jump\t// in\n    tag_111:\n        /* \"#utility.yul\":3271:3277   */\n      dup2\n        /* \"#utility.yul\":3267:3307   */\n      add\n        /* \"#utility.yul\":3409:3415   */\n      dup2\n        /* \"#utility.yul\":3397:3407   */\n      dup2\n        /* \"#utility.yul\":3394:3416   */\n      lt\n        /* \"#utility.yul\":3373:3391   */\n      0xffffffffffffffff\n        /* \"#utility.yul\":3361:3371   */\n      dup3\n        /* \"#utility.yul\":3358:3392   */\n      gt\n        /* \"#utility.yul\":3355:3417   */\n      or\n        /* \"#utility.yul\":3352:3440   */\n      iszero\n      tag_112\n      jumpi\n        /* \"#utility.yul\":3420:3438   */\n      tag_113\n      tag_60\n      jump\t// in\n    tag_113:\n        /* \"#utility.yul\":3352:3440   */\n    tag_112:\n        /* \"#utility.yul\":3460:3470   */\n      dup1\n        /* \"#utility.yul\":3456:3458   */\n      0x40\n        /* \"#utility.yul\":3449:3471   */\n      mstore\n        /* \"#utility.yul\":3239:3477   */\n      pop\n        /* \"#utility.yul\":3196:3477   */\n      pop\n      pop\n      jump\t// out\n        /* \"#utility.yul\":3483:3612   */\n    tag_62:\n        /* \"#utility.yul\":3517:3523   */\n      0x00\n        /* \"#utility.yul\":3544:3564   */\n      tag_115\n      tag_48\n      jump\t// in\n    tag_115:\n        /* \"#utility.yul\":3534:3564   */\n      swap1\n      pop\n        /* \"#utility.yul\":3573:3606   */\n      tag_116\n        /* \"#utility.yul\":3601:3605   */\n      dup3\n        /* \"#utility.yul\":3593:3599   */\n      dup3\n        /* \"#utility.yul\":3573:3606   */\n      tag_61\n      jump\t// in\n    tag_116:\n        /* \"#utility.yul\":3483:3612   */\n      swap2\n      swap1\n      pop\n      jump\t// out\n        /* \"#utility.yul\":3618:3929   */\n    tag_63:\n        /* \"#utility.yul\":3695:3699   */\n      0x00\n        /* \"#utility.yul\":3785:3803   */\n      0xffffffffffffffff\n        /* \"#utility.yul\":3777:3783   */\n      dup3\n        /* \"#utility.yul\":3774:3804   */\n      gt\n        /* \"#utility.yul\":3771:3827   */\n      iszero\n      tag_118\n      jumpi\n        /* \"#utility.yul\":3807:3825   */\n      tag_119\n      tag_60\n      jump\t// in\n    tag_119:\n        /* \"#utility.yul\":3771:3827   */\n    tag_118:\n        /* \"#utility.yul\":3857:3861   */\n      0x20\n        /* \"#utility.yul\":3849:3855   */\n      dup3\n        /* \"#utility.yul\":3845:3862   */\n      mul\n        /* \"#utility.yul\":3837:3862   */\n      swap1\n      pop\n        /* \"#utility.yul\":3917:3921   */\n      0x20\n        /* \"#utility.yul\":3911:3915   */\n      dup2\n        /* \"#utility.yul\":3907:3922   */\n      add\n        /* \"#utility.yul\":3899:3922   */\n      swap1\n      pop\n        /* \"#utility.yul\":3618:3929   */\n      swap2\n      swap1\n      pop\n      jump\t// out\n        /* \"#utility.yul\":3952:4662   */\n    tag_64:\n        /* \"#utility.yul\":4048:4053   */\n      0x00\n        /* \"#utility.yul\":4073:4154   */\n      tag_121\n        /* \"#utility.yul\":4089:4153   */\n      tag_122\n        /* \"#utility.yul\":4146:4152   */\n      dup5\n        /* \"#utility.yul\":4089:4153   */\n      tag_63\n      jump\t// in\n    tag_122:\n        /* \"#utility.yul\":4073:4154   */\n      tag_62\n      jump\t// in\n    tag_121:\n        /* \"#utility.yul\":4064:4154   */\n      swap1\n      pop\n        /* \"#utility.yul\":4174:4179   */\n      dup1\n        /* \"#utility.yul\":4203:4209   */\n      dup4\n        /* \"#utility.yul\":4196:4201   */\n      dup3\n        /* \"#utility.yul\":4189:4210   */\n      mstore\n        /* \"#utility.yul\":4237:4241   */\n      0x20\n        /* \"#utility.yul\":4230:4235   */\n      dup3\n        /* \"#utility.yul\":4226:4242   */\n      add\n        /* \"#utility.yul\":4219:4242   */\n      swap1\n      pop\n        /* \"#utility.yul\":4290:4294   */\n      0x20\n        /* \"#utility.yul\":4282:4288   */\n      dup5\n        /* \"#utility.yul\":4278:4295   */\n      mul\n        /* \"#utility.yul\":4270:4276   */\n      dup4\n        /* \"#utility.yul\":4266:4296   */\n      add\n        /* \"#utility.yul\":4319:4322   */\n      dup6\n        /* \"#utility.yul\":4311:4317   */\n      dup2\n        /* \"#utility.yul\":4308:4323   */\n      gt\n        /* \"#utility.yul\":4305:4427   */\n      iszero\n      tag_123\n      jumpi\n        /* \"#utility.yul\":4338:4417   */\n      tag_124\n      tag_53\n      jump\t// in\n    tag_124:\n        /* \"#utility.yul\":4305:4427   */\n    tag_123:\n        /* \"#utility.yul\":4453:4459   */\n      dup4\n        /* \"#utility.yul\":4436:4656   */\n    tag_125:\n        /* \"#utility.yul\":4470:4476   */\n      dup2\n        /* \"#utility.yul\":4465:4468   */\n      dup2\n        /* \"#utility.yul\":4462:4477   */\n      lt\n        /* \"#utility.yul\":4436:4656   */\n      iszero\n      tag_127\n      jumpi\n        /* \"#utility.yul\":4545:4548   */\n      dup1\n        /* \"#utility.yul\":4574:4611   */\n      tag_128\n        /* \"#utility.yul\":4607:4610   */\n      dup9\n        /* \"#utility.yul\":4595:4605   */\n      dup3\n        /* \"#utility.yul\":4574:4611   */\n      tag_57\n      jump\t// in\n    tag_128:\n        /* \"#utility.yul\":4569:4572   */\n      dup5\n        /* \"#utility.yul\":4562:4612   */\n      mstore\n        /* \"#utility.yul\":4641:4645   */\n      0x20\n        /* \"#utility.yul\":4636:4639   */\n      dup5\n        /* \"#utility.yul\":4632:4646   */\n      add\n        /* \"#utility.yul\":4625:4646   */\n      swap4\n      pop\n        /* \"#utility.yul\":4512:4656   */\n      pop\n        /* \"#utility.yul\":4496:4500   */\n      0x20\n        /* \"#utility.yul\":4491:4494   */\n      dup2\n        /* \"#utility.yul\":4487:4501   */\n      add\n        /* \"#utility.yul\":4480:4501   */\n      swap1\n      pop\n        /* \"#utility.yul\":4436:4656   */\n      jump(tag_125)\n    tag_127:\n        /* \"#utility.yul\":4440:4461   */\n      pop\n        /* \"#utility.yul\":4054:4662   */\n      pop\n      pop\n        /* \"#utility.yul\":3952:4662   */\n      swap4\n      swap3\n      pop\n      pop\n      pop\n      jump\t// out\n        /* \"#utility.yul\":4685:5055   */\n    tag_65:\n        /* \"#utility.yul\":4756:4761   */\n      0x00\n        /* \"#utility.yul\":4805:4808   */\n      dup3\n        /* \"#utility.yul\":4798:4802   */\n      0x1f\n        /* \"#utility.yul\":4790:4796   */\n      dup4\n        /* \"#utility.yul\":4786:4803   */\n      add\n        /* \"#utility.yul\":4782:4809   */\n      slt\n        /* \"#utility.yul\":4772:4894   */\n      tag_130\n      jumpi\n        /* \"#utility.yul\":4813:4892   */\n      tag_131\n      tag_51\n      jump\t// in\n    tag_131:\n        /* \"#utility.yul\":4772:4894   */\n    tag_130:\n        /* \"#utility.yul\":4930:4936   */\n      dup2\n        /* \"#utility.yul\":4917:4937   */\n      calldataload\n        /* \"#utility.yul\":4955:5049   */\n      tag_132\n        /* \"#utility.yul\":5045:5048   */\n      dup5\n        /* \"#utility.yul\":5037:5043   */\n      dup3\n        /* \"#utility.yul\":5030:5034   */\n      0x20\n        /* \"#utility.yul\":5022:5028   */\n      dup7\n        /* \"#utility.yul\":5018:5035   */\n      add\n        /* \"#utility.yul\":4955:5049   */\n      tag_64\n      jump\t// in\n    tag_132:\n        /* \"#utility.yul\":4946:5049   */\n      swap2\n      pop\n        /* \"#utility.yul\":4762:5055   */\n      pop\n        /* \"#utility.yul\":4685:5055   */\n      swap3\n      swap2\n      pop\n      pop\n      jump\t// out\n        /* \"#utility.yul\":5061:5600   */\n    tag_27:\n        /* \"#utility.yul\":5145:5151   */\n      0x00\n        /* \"#utility.yul\":5194:5196   */\n      0x20\n        /* \"#utility.yul\":5182:5191   */\n      dup3\n        /* \"#utility.yul\":5173:5180   */\n      dup5\n        /* \"#utility.yul\":5169:5192   */\n      sub\n        /* \"#utility.yul\":5165:5197   */\n      slt\n        /* \"#utility.yul\":5162:5281   */\n      iszero\n      tag_134\n      jumpi\n        /* \"#utility.yul\":5200:5279   */\n      tag_135\n      tag_49\n      jump\t// in\n    tag_135:\n        /* \"#utility.yul\":5162:5281   */\n    tag_134:\n        /* \"#utility.yul\":5348:5349   */\n      0x00\n        /* \"#utility.yul\":5337:5346   */\n      dup3\n        /* \"#utility.yul\":5333:5350   */\n      add\n        /* \"#utility.yul\":5320:5351   */\n      calldataload\n        /* \"#utility.yul\":5378:5396   */\n      0xffffffffffffffff\n        /* \"#utility.yul\":5370:5376   */\n      dup2\n        /* \"#utility.yul\":5367:5397   */\n      gt\n        /* \"#utility.yul\":5364:5481   */\n      iszero\n      tag_136\n      jumpi\n        /* \"#utility.yul\":5400:5479   */\n      tag_137\n      tag_50\n      jump\t// in\n    tag_137:\n        /* \"#utility.yul\":5364:5481   */\n    tag_136:\n        /* \"#utility.yul\":5505:5583   */\n      tag_138\n        /* \"#utility.yul\":5575:5582   */\n      dup5\n        /* \"#utility.yul\":5566:5572   */\n      dup3\n        /* \"#utility.yul\":5555:5564   */\n      dup6\n        /* \"#utility.yul\":5551:5573   */\n      add\n        /* \"#utility.yul\":5505:5583   */\n      tag_65\n      jump\t// in\n    tag_138:\n        /* \"#utility.yul\":5495:5583   */\n      swap2\n      pop\n        /* \"#utility.yul\":5291:5593   */\n      pop\n        /* \"#utility.yul\":5061:5600   */\n      swap3\n      swap2\n      pop\n      pop\n      jump\t// out\n        /* \"#utility.yul\":5606:5720   */\n    tag_66:\n        /* \"#utility.yul\":5673:5679   */\n      0x00\n        /* \"#utility.yul\":5707:5712   */\n      dup2\n        /* \"#utility.yul\":5701:5713   */\n      mload\n        /* \"#utility.yul\":5691:5713   */\n      swap1\n      pop\n        /* \"#utility.yul\":5606:5720   */\n      swap2\n      swap1\n      pop\n      jump\t// out\n        /* \"#utility.yul\":5726:5910   */\n    tag_67:\n        /* \"#utility.yul\":5825:5836   */\n      0x00\n        /* \"#utility.yul\":5859:5865   */\n      dup3\n        /* \"#utility.yul\":5854:5857   */\n      dup3\n        /* \"#utility.yul\":5847:5866   */\n      mstore\n        /* \"#utility.yul\":5899:5903   */\n      0x20\n        /* \"#utility.yul\":5894:5897   */\n      dup3\n        /* \"#utility.yul\":5890:5904   */\n      add\n        /* \"#utility.yul\":5875:5904   */\n      swap1\n      pop\n        /* \"#utility.yul\":5726:5910   */\n      swap3\n      swap2\n      pop\n      pop\n      jump\t// out\n        /* \"#utility.yul\":5916:6048   */\n    tag_68:\n        /* \"#utility.yul\":5983:5987   */\n      0x00\n        /* \"#utility.yul\":6006:6009   */\n      dup2\n        /* \"#utility.yul\":5998:6009   */\n      swap1\n      pop\n        /* \"#utility.yul\":6036:6040   */\n      0x20\n        /* \"#utility.yul\":6031:6034   */\n      dup3\n        /* \"#utility.yul\":6027:6041   */\n      add\n        /* \"#utility.yul\":6019:6041   */\n      swap1\n      pop\n        /* \"#utility.yul\":5916:6048   */\n      swap2\n      swap1\n      pop\n      jump\t// out\n        /* \"#utility.yul\":6054:6162   */\n    tag_69:\n        /* \"#utility.yul\":6131:6155   */\n      tag_143\n        /* \"#utility.yul\":6149:6154   */\n      dup2\n        /* \"#utility.yul\":6131:6155   */\n      tag_55\n      jump\t// in\n    tag_143:\n        /* \"#utility.yul\":6126:6129   */\n      dup3\n        /* \"#utility.yul\":6119:6156   */\n      mstore\n        /* \"#utility.yul\":6054:6162   */\n      pop\n      pop\n      jump\t// out\n        /* \"#utility.yul\":6168:6347   */\n    tag_70:\n        /* \"#utility.yul\":6237:6247   */\n      0x00\n        /* \"#utility.yul\":6258:6304   */\n      tag_145\n        /* \"#utility.yul\":6300:6303   */\n      dup4\n        /* \"#utility.yul\":6292:6298   */\n      dup4\n        /* \"#utility.yul\":6258:6304   */\n      tag_69\n      jump\t// in\n    tag_145:\n        /* \"#utility.yul\":6336:6340   */\n      0x20\n        /* \"#utility.yul\":6331:6334   */\n      dup4\n        /* \"#utility.yul\":6327:6341   */\n      add\n        /* \"#utility.yul\":6313:6341   */\n      swap1\n      pop\n        /* \"#utility.yul\":6168:6347   */\n      swap3\n      swap2\n      pop\n      pop\n      jump\t// out\n        /* \"#utility.yul\":6353:6466   */\n    tag_71:\n        /* \"#utility.yul\":6423:6427   */\n      0x00\n        /* \"#utility.yul\":6455:6459   */\n      0x20\n        /* \"#utility.yul\":6450:6453   */\n      dup3\n        /* \"#utility.yul\":6446:6460   */\n      add\n        /* \"#utility.yul\":6438:6460   */\n      swap1\n      pop\n        /* \"#utility.yul\":6353:6466   */\n      swap2\n      swap1\n      pop\n      jump\t// out\n        /* \"#utility.yul\":6502:7234   */\n    tag_72:\n        /* \"#utility.yul\":6621:6624   */\n      0x00\n        /* \"#utility.yul\":6650:6704   */\n      tag_148\n        /* \"#utility.yul\":6698:6703   */\n      dup3\n        /* \"#utility.yul\":6650:6704   */\n      tag_66\n      jump\t// in\n    tag_148:\n        /* \"#utility.yul\":6720:6806   */\n      tag_149\n        /* \"#utility.yul\":6799:6805   */\n      dup2\n        /* \"#utility.yul\":6794:6797   */\n      dup6\n        /* \"#utility.yul\":6720:6806   */\n      tag_67\n      jump\t// in\n    tag_149:\n        /* \"#utility.yul\":6713:6806   */\n      swap4\n      pop\n        /* \"#utility.yul\":6830:6886   */\n      tag_150\n        /* \"#utility.yul\":6880:6885   */\n      dup4\n        /* \"#utility.yul\":6830:6886   */\n      tag_68\n      jump\t// in\n    tag_150:\n        /* \"#utility.yul\":6909:6916   */\n      dup1\n        /* \"#utility.yul\":6940:6941   */\n      0x00\n        /* \"#utility.yul\":6925:7209   */\n    tag_151:\n        /* \"#utility.yul\":6950:6956   */\n      dup4\n        /* \"#utility.yul\":6947:6948   */\n      dup2\n        /* \"#utility.yul\":6944:6957   */\n      lt\n        /* \"#utility.yul\":6925:7209   */\n      iszero\n      tag_153\n      jumpi\n        /* \"#utility.yul\":7026:7032   */\n      dup2\n        /* \"#utility.yul\":7020:7033   */\n      mload\n        /* \"#utility.yul\":7053:7116   */\n      tag_154\n        /* \"#utility.yul\":7112:7115   */\n      dup9\n        /* \"#utility.yul\":7097:7110   */\n      dup3\n        /* \"#utility.yul\":7053:7116   */\n      tag_70\n      jump\t// in\n    tag_154:\n        /* \"#utility.yul\":7046:7116   */\n      swap8\n      pop\n        /* \"#utility.yul\":7139:7199   */\n      tag_155\n        /* \"#utility.yul\":7192:7198   */\n      dup4\n        /* \"#utility.yul\":7139:7199   */\n      tag_71\n      jump\t// in\n    tag_155:\n        /* \"#utility.yul\":7129:7199   */\n      swap3\n      pop\n        /* \"#utility.yul\":6985:7209   */\n      pop\n        /* \"#utility.yul\":6972:6973   */\n      0x01\n        /* \"#utility.yul\":6969:6970   */\n      dup2\n        /* \"#utility.yul\":6965:6974   */\n      add\n        /* \"#utility.yul\":6960:6974   */\n      swap1\n      pop\n        /* \"#utility.yul\":6925:7209   */\n      jump(tag_151)\n    tag_153:\n        /* \"#utility.yul\":6929:6943   */\n      pop\n        /* \"#utility.yul\":7225:7228   */\n      dup6\n        /* \"#utility.yul\":7218:7228   */\n      swap4\n      pop\n        /* \"#utility.yul\":6626:7234   */\n      pop\n      pop\n      pop\n        /* \"#utility.yul\":6502:7234   */\n      swap3\n      swap2\n      pop\n      pop\n      jump\t// out\n        /* \"#utility.yul\":7240:7613   */\n    tag_30:\n        /* \"#utility.yul\":7383:7387   */\n      0x00\n        /* \"#utility.yul\":7421:7423   */\n      0x20\n        /* \"#utility.yul\":7410:7419   */\n      dup3\n        /* \"#utility.yul\":7406:7424   */\n      add\n        /* \"#utility.yul\":7398:7424   */\n      swap1\n      pop\n        /* \"#utility.yul\":7470:7479   */\n      dup2\n        /* \"#utility.yul\":7464:7468   */\n      dup2\n        /* \"#utility.yul\":7460:7480   */\n      sub\n        /* \"#utility.yul\":7456:7457   */\n      0x00\n        /* \"#utility.yul\":7445:7454   */\n      dup4\n        /* \"#utility.yul\":7441:7458   */\n      add\n        /* \"#utility.yul\":7434:7481   */\n      mstore\n        /* \"#utility.yul\":7498:7606   */\n      tag_157\n        /* \"#utility.yul\":7601:7605   */\n      dup2\n        /* \"#utility.yul\":7592:7598   */\n      dup5\n        /* \"#utility.yul\":7498:7606   */\n      tag_72\n      jump\t// in\n    tag_157:\n        /* \"#utility.yul\":7490:7606   */\n      swap1\n      pop\n        /* \"#utility.yul\":7240:7613   */\n      swap3\n      swap2\n      pop\n      pop\n      jump\t// out\n        /* \"#utility.yul\":7689:8019   */\n    tag_73:\n        /* \"#utility.yul\":7834:7838   */\n      0x20\n        /* \"#utility.yul\":7829:7832   */\n      dup3\n        /* \"#utility.yul\":7825:7839   */\n      add\n        /* \"#utility.yul\":7920:7924   */\n      0x00\n        /* \"#utility.yul\":7913:7918   */\n      dup3\n        /* \"#utility.yul\":7909:7925   */\n      add\n        /* \"#utility.yul\":7903:7926   */\n      mload\n        /* \"#utility.yul\":7939:8002   */\n      tag_159\n        /* \"#utility.yul\":7996:8000   */\n      0x00\n        /* \"#utility.yul\":7991:7994   */\n      dup6\n        /* \"#utility.yul\":7987:8001   */\n      add\n        /* \"#utility.yul\":7973:7985   */\n      dup3\n        /* \"#utility.yul\":7939:8002   */\n      tag_69\n      jump\t// in\n    tag_159:\n        /* \"#utility.yul\":7849:8012   */\n      pop\n        /* \"#utility.yul\":7803:8019   */\n      pop\n        /* \"#utility.yul\":7689:8019   */\n      pop\n      pop\n      jump\t// out\n        /* \"#utility.yul\":8025:8343   */\n    tag_35:\n        /* \"#utility.yul\":8166:8170   */\n      0x00\n        /* \"#utility.yul\":8204:8206   */\n      0x20\n        /* \"#utility.yul\":8193:8202   */\n      dup3\n        /* \"#utility.yul\":8189:8207   */\n      add\n        /* \"#utility.yul\":8181:8207   */\n      swap1\n      pop\n        /* \"#utility.yul\":8217:8336   */\n      tag_161\n        /* \"#utility.yul\":8333:8334   */\n      0x00\n        /* \"#utility.yul\":8322:8331   */\n      dup4\n        /* \"#utility.yul\":8318:8335   */\n      add\n        /* \"#utility.yul\":8309:8315   */\n      dup5\n        /* \"#utility.yul\":8217:8336   */\n      tag_73\n      jump\t// in\n    tag_161:\n        /* \"#utility.yul\":8025:8343   */\n      swap3\n      swap2\n      pop\n      pop\n      jump\t// out\n\n    auxdata: 0xa26469706673582212209585f0ccb4cf1ecb3844bc2d12609e8ab4d5fd6784dd313cb97e97c44ba4ca8f64736f6c634300080d0033\n}\n",
				"bytecode": {
					"linkReferences": {},
					"object": "608060405234801561001057600080fd5b506106a0806100206000396000f3fe608060405234801561001057600080fd5b50600436106100625760003560e01c806326121ff01461006757806340dcbb0814610071578063569703c91461008d57806371e5ee5f146100bd578063baf71609146100ed578063cdfa84951461011d575b600080fd5b61006f61014d565b005b61008b600480360381019061008691906102e1565b6101ca565b005b6100a760048036038101906100a29190610364565b6101ce565b6040516100b491906103a0565b60405180910390f35b6100d760048036038101906100d29190610364565b6101ee565b6040516100e491906103a0565b60405180910390f35b6101076004803603810190610102919061050a565b610212565b6040516101149190610611565b60405180910390f35b61013760048036038101906101329190610364565b610219565b604051610144919061064f565b60405180910390f35b61016d600060016002600060018152602001908152602001600020610250565b600060026000600181526020019081526020016000209050606f81600001819055506000600260008081526020019081526020016000206040518060200160405290816000820154815250509050607b8160000181815250505050565b5050565b600060026000838152602001908152602001600020600001549050919050565b600081815481106101fe57600080fd5b906000526020600020016000915090505481565b6060919050565b610221610255565b600260008381526020019081526020016000206040518060200160405290816000820154815250509050919050565b505050565b6040518060200160405280600081525090565b6000604051905090565b600080fd5b600080fd5b600080fd5b600080fd5b600080fd5b60008083601f8401126102a1576102a061027c565b5b8235905067ffffffffffffffff8111156102be576102bd610281565b5b6020830191508360208202830111156102da576102d9610286565b5b9250929050565b600080602083850312156102f8576102f7610272565b5b600083013567ffffffffffffffff81111561031657610315610277565b5b6103228582860161028b565b92509250509250929050565b6000819050919050565b6103418161032e565b811461034c57600080fd5b50565b60008135905061035e81610338565b92915050565b60006020828403121561037a57610379610272565b5b60006103888482850161034f565b91505092915050565b61039a8161032e565b82525050565b60006020820190506103b56000830184610391565b92915050565b6000601f19601f8301169050919050565b7f4e487b7100000000000000000000000000000000000000000000000000000000600052604160045260246000fd5b610404826103bb565b810181811067ffffffffffffffff82111715610423576104226103cc565b5b80604052505050565b6000610436610268565b905061044282826103fb565b919050565b600067ffffffffffffffff821115610462576104616103cc565b5b602082029050602081019050919050565b600061048661048184610447565b61042c565b905080838252602082019050602084028301858111156104a9576104a8610286565b5b835b818110156104d257806104be888261034f565b8452602084019350506020810190506104ab565b5050509392505050565b600082601f8301126104f1576104f061027c565b5b8135610501848260208601610473565b91505092915050565b6000602082840312156105205761051f610272565b5b600082013567ffffffffffffffff81111561053e5761053d610277565b5b61054a848285016104dc565b91505092915050565b600081519050919050565b600082825260208201905092915050565b6000819050602082019050919050565b6105888161032e565b82525050565b600061059a838361057f565b60208301905092915050565b6000602082019050919050565b60006105be82610553565b6105c8818561055e565b93506105d38361056f565b8060005b838110156106045781516105eb888261058e565b97506105f6836105a6565b9250506001810190506105d7565b5085935050505092915050565b6000602082019050818103600083015261062b81846105b3565b905092915050565b602082016000820151610649600085018261057f565b50505050565b60006020820190506106646000830184610633565b9291505056fea26469706673582212209585f0ccb4cf1ecb3844bc2d12609e8ab4d5fd6784dd313cb97e97c44ba4ca8f64736f6c634300080d0033",
					"opcodes": "PUSH1 0x80 PUSH1 0x40 MSTORE CALLVALUE DUP1 ISZERO PUSH2 0x10 JUMPI PUSH1 0x0 DUP1 REVERT JUMPDEST POP PUSH2 0x6A0 DUP1 PUSH2 0x20 PUSH1 0x0 CODECOPY PUSH1 0x0 RETURN INVALID PUSH1 0x80 PUSH1 0x40 MSTORE CALLVALUE DUP1 ISZERO PUSH2 0x10 JUMPI PUSH1 0x0 DUP1 REVERT JUMPDEST POP PUSH1 0x4 CALLDATASIZE LT PUSH2 0x62 JUMPI PUSH1 0x0 CALLDATALOAD PUSH1 0xE0 SHR DUP1 PUSH4 0x26121FF0 EQ PUSH2 0x67 JUMPI DUP1 PUSH4 0x40DCBB08 EQ PUSH2 0x71 JUMPI DUP1 PUSH4 0x569703C9 EQ PUSH2 0x8D JUMPI DUP1 PUSH4 0x71E5EE5F EQ PUSH2 0xBD JUMPI DUP1 PUSH4 0xBAF71609 EQ PUSH2 0xED JUMPI DUP1 PUSH4 0xCDFA8495 EQ PUSH2 0x11D JUMPI JUMPDEST PUSH1 0x0 DUP1 REVERT JUMPDEST PUSH2 0x6F PUSH2 0x14D JUMP JUMPDEST STOP JUMPDEST PUSH2 0x8B PUSH1 0x4 DUP1 CALLDATASIZE SUB DUP2 ADD SWAP1 PUSH2 0x86 SWAP2 SWAP1 PUSH2 0x2E1 JUMP JUMPDEST PUSH2 0x1CA JUMP JUMPDEST STOP JUMPDEST PUSH2 0xA7 PUSH1 0x4 DUP1 CALLDATASIZE SUB DUP2 ADD SWAP1 PUSH2 0xA2 SWAP2 SWAP1 PUSH2 0x364 JUMP JUMPDEST PUSH2 0x1CE JUMP JUMPDEST PUSH1 0x40 MLOAD PUSH2 0xB4 SWAP2 SWAP1 PUSH2 0x3A0 JUMP JUMPDEST PUSH1 0x40 MLOAD DUP1 SWAP2 SUB SWAP1 RETURN JUMPDEST PUSH2 0xD7 PUSH1 0x4 DUP1 CALLDATASIZE SUB DUP2 ADD SWAP1 PUSH2 0xD2 SWAP2 SWAP1 PUSH2 0x364 JUMP JUMPDEST PUSH2 0x1EE JUMP JUMPDEST PUSH1 0x40 MLOAD PUSH2 0xE4 SWAP2 SWAP1 PUSH2 0x3A0 JUMP JUMPDEST PUSH1 0x40 MLOAD DUP1 SWAP2 SUB SWAP1 RETURN JUMPDEST PUSH2 0x107 PUSH1 0x4 DUP1 CALLDATASIZE SUB DUP2 ADD SWAP1 PUSH2 0x102 SWAP2 SWAP1 PUSH2 0x50A JUMP JUMPDEST PUSH2 0x212 JUMP JUMPDEST PUSH1 0x40 MLOAD PUSH2 0x114 SWAP2 SWAP1 PUSH2 0x611 JUMP JUMPDEST PUSH1 0x40 MLOAD DUP1 SWAP2 SUB SWAP1 RETURN JUMPDEST PUSH2 0x137 PUSH1 0x4 DUP1 CALLDATASIZE SUB DUP2 ADD SWAP1 PUSH2 0x132 SWAP2 SWAP1 PUSH2 0x364 JUMP JUMPDEST PUSH2 0x219 JUMP JUMPDEST PUSH1 0x40 MLOAD PUSH2 0x144 SWAP2 SWAP1 PUSH2 0x64F JUMP JUMPDEST PUSH1 0x40 MLOAD DUP1 SWAP2 SUB SWAP1 RETURN JUMPDEST PUSH2 0x16D PUSH1 0x0 PUSH1 0x1 PUSH1 0x2 PUSH1 0x0 PUSH1 0x1 DUP2 MSTORE PUSH1 0x20 ADD SWAP1 DUP2 MSTORE PUSH1 0x20 ADD PUSH1 0x0 KECCAK256 PUSH2 0x250 JUMP JUMPDEST PUSH1 0x0 PUSH1 0x2 PUSH1 0x0 PUSH1 0x1 DUP2 MSTORE PUSH1 0x20 ADD SWAP1 DUP2 MSTORE PUSH1 0x20 ADD PUSH1 0x0 KECCAK256 SWAP1 POP PUSH1 0x6F DUP2 PUSH1 0x0 ADD DUP2 SWAP1 SSTORE POP PUSH1 0x0 PUSH1 0x2 PUSH1 0x0 DUP1 DUP2 MSTORE PUSH1 0x20 ADD SWAP1 DUP2 MSTORE PUSH1 0x20 ADD PUSH1 0x0 KECCAK256 PUSH1 0x40 MLOAD DUP1 PUSH1 0x20 ADD PUSH1 0x40 MSTORE SWAP1 DUP2 PUSH1 0x0 DUP3 ADD SLOAD DUP2 MSTORE POP POP SWAP1 POP PUSH1 0x7B DUP2 PUSH1 0x0 ADD DUP2 DUP2 MSTORE POP POP POP POP JUMP JUMPDEST POP POP JUMP JUMPDEST PUSH1 0x0 PUSH1 0x2 PUSH1 0x0 DUP4 DUP2 MSTORE PUSH1 0x20 ADD SWAP1 DUP2 MSTORE PUSH1 0x20 ADD PUSH1 0x0 KECCAK256 PUSH1 0x0 ADD SLOAD SWAP1 POP SWAP2 SWAP1 POP JUMP JUMPDEST PUSH1 0x0 DUP2 DUP2 SLOAD DUP2 LT PUSH2 0x1FE JUMPI PUSH1 0x0 DUP1 REVERT JUMPDEST SWAP1 PUSH1 0x0 MSTORE PUSH1 0x20 PUSH1 0x0 KECCAK256 ADD PUSH1 0x0 SWAP2 POP SWAP1 POP SLOAD DUP2 JUMP JUMPDEST PUSH1 0x60 SWAP2 SWAP1 POP JUMP JUMPDEST PUSH2 0x221 PUSH2 0x255 JUMP JUMPDEST PUSH1 0x2 PUSH1 0x0 DUP4 DUP2 MSTORE PUSH1 0x20 ADD SWAP1 DUP2 MSTORE PUSH1 0x20 ADD PUSH1 0x0 KECCAK256 PUSH1 0x40 MLOAD DUP1 PUSH1 0x20 ADD PUSH1 0x40 MSTORE SWAP1 DUP2 PUSH1 0x0 DUP3 ADD SLOAD DUP2 MSTORE POP POP SWAP1 POP SWAP2 SWAP1 POP JUMP JUMPDEST POP POP POP JUMP JUMPDEST PUSH1 0x40 MLOAD DUP1 PUSH1 0x20 ADD PUSH1 0x40 MSTORE DUP1 PUSH1 0x0 DUP2 MSTORE POP SWAP1 JUMP JUMPDEST PUSH1 0x0 PUSH1 0x40 MLOAD SWAP1 POP SWAP1 JUMP JUMPDEST PUSH1 0x0 DUP1 REVERT JUMPDEST PUSH1 0x0 DUP1 REVERT JUMPDEST PUSH1 0x0 DUP1 REVERT JUMPDEST PUSH1 0x0 DUP1 REVERT JUMPDEST PUSH1 0x0 DUP1 REVERT JUMPDEST PUSH1 0x0 DUP1 DUP4 PUSH1 0x1F DUP5 ADD SLT PUSH2 0x2A1 JUMPI PUSH2 0x2A0 PUSH2 0x27C JUMP JUMPDEST JUMPDEST DUP3 CALLDATALOAD SWAP1 POP PUSH8 0xFFFFFFFFFFFFFFFF DUP2 GT ISZERO PUSH2 0x2BE JUMPI PUSH2 0x2BD PUSH2 0x281 JUMP JUMPDEST JUMPDEST PUSH1 0x20 DUP4 ADD SWAP2 POP DUP4 PUSH1 0x20 DUP3 MUL DUP4 ADD GT ISZERO PUSH2 0x2DA JUMPI PUSH2 0x2D9 PUSH2 0x286 JUMP JUMPDEST JUMPDEST SWAP3 POP SWAP3 SWAP1 POP JUMP JUMPDEST PUSH1 0x0 DUP1 PUSH1 0x20 DUP4 DUP6 SUB SLT ISZERO PUSH2 0x2F8 JUMPI PUSH2 0x2F7 PUSH2 0x272 JUMP JUMPDEST JUMPDEST PUSH1 0x0 DUP4 ADD CALLDATALOAD PUSH8 0xFFFFFFFFFFFFFFFF DUP2 GT ISZERO PUSH2 0x316 JUMPI PUSH2 0x315 PUSH2 0x277 JUMP JUMPDEST JUMPDEST PUSH2 0x322 DUP6 DUP3 DUP7 ADD PUSH2 0x28B JUMP JUMPDEST SWAP3 POP SWAP3 POP POP SWAP3 POP SWAP3 SWAP1 POP JUMP JUMPDEST PUSH1 0x0 DUP2 SWAP1 POP SWAP2 SWAP1 POP JUMP JUMPDEST PUSH2 0x341 DUP2 PUSH2 0x32E JUMP JUMPDEST DUP2 EQ PUSH2 0x34C JUMPI PUSH1 0x0 DUP1 REVERT JUMPDEST POP JUMP JUMPDEST PUSH1 0x0 DUP2 CALLDATALOAD SWAP1 POP PUSH2 0x35E DUP2 PUSH2 0x338 JUMP JUMPDEST SWAP3 SWAP2 POP POP JUMP JUMPDEST PUSH1 0x0 PUSH1 0x20 DUP3 DUP5 SUB SLT ISZERO PUSH2 0x37A JUMPI PUSH2 0x379 PUSH2 0x272 JUMP JUMPDEST JUMPDEST PUSH1 0x0 PUSH2 0x388 DUP5 DUP3 DUP6 ADD PUSH2 0x34F JUMP JUMPDEST SWAP2 POP POP SWAP3 SWAP2 POP POP JUMP JUMPDEST PUSH2 0x39A DUP2 PUSH2 0x32E JUMP JUMPDEST DUP3 MSTORE POP POP JUMP JUMPDEST PUSH1 0x0 PUSH1 0x20 DUP3 ADD SWAP1 POP PUSH2 0x3B5 PUSH1 0x0 DUP4 ADD DUP5 PUSH2 0x391 JUMP JUMPDEST SWAP3 SWAP2 POP POP JUMP JUMPDEST PUSH1 0x0 PUSH1 0x1F NOT PUSH1 0x1F DUP4 ADD AND SWAP1 POP SWAP2 SWAP1 POP JUMP JUMPDEST PUSH32 0x4E487B7100000000000000000000000000000000000000000000000000000000 PUSH1 0x0 MSTORE PUSH1 0x41 PUSH1 0x4 MSTORE PUSH1 0x24 PUSH1 0x0 REVERT JUMPDEST PUSH2 0x404 DUP3 PUSH2 0x3BB JUMP JUMPDEST DUP2 ADD DUP2 DUP2 LT PUSH8 0xFFFFFFFFFFFFFFFF DUP3 GT OR ISZERO PUSH2 0x423 JUMPI PUSH2 0x422 PUSH2 0x3CC JUMP JUMPDEST JUMPDEST DUP1 PUSH1 0x40 MSTORE POP POP POP JUMP JUMPDEST PUSH1 0x0 PUSH2 0x436 PUSH2 0x268 JUMP JUMPDEST SWAP1 POP PUSH2 0x442 DUP3 DUP3 PUSH2 0x3FB JUMP JUMPDEST SWAP2 SWAP1 POP JUMP JUMPDEST PUSH1 0x0 PUSH8 0xFFFFFFFFFFFFFFFF DUP3 GT ISZERO PUSH2 0x462 JUMPI PUSH2 0x461 PUSH2 0x3CC JUMP JUMPDEST JUMPDEST PUSH1 0x20 DUP3 MUL SWAP1 POP PUSH1 0x20 DUP2 ADD SWAP1 POP SWAP2 SWAP1 POP JUMP JUMPDEST PUSH1 0x0 PUSH2 0x486 PUSH2 0x481 DUP5 PUSH2 0x447 JUMP JUMPDEST PUSH2 0x42C JUMP JUMPDEST SWAP1 POP DUP1 DUP4 DUP3 MSTORE PUSH1 0x20 DUP3 ADD SWAP1 POP PUSH1 0x20 DUP5 MUL DUP4 ADD DUP6 DUP2 GT ISZERO PUSH2 0x4A9 JUMPI PUSH2 0x4A8 PUSH2 0x286 JUMP JUMPDEST JUMPDEST DUP4 JUMPDEST DUP2 DUP2 LT ISZERO PUSH2 0x4D2 JUMPI DUP1 PUSH2 0x4BE DUP9 DUP3 PUSH2 0x34F JUMP JUMPDEST DUP5 MSTORE PUSH1 0x20 DUP5 ADD SWAP4 POP POP PUSH1 0x20 DUP2 ADD SWAP1 POP PUSH2 0x4AB JUMP JUMPDEST POP POP POP SWAP4 SWAP3 POP POP POP JUMP JUMPDEST PUSH1 0x0 DUP3 PUSH1 0x1F DUP4 ADD SLT PUSH2 0x4F1 JUMPI PUSH2 0x4F0 PUSH2 0x27C JUMP JUMPDEST JUMPDEST DUP2 CALLDATALOAD PUSH2 0x501 DUP5 DUP3 PUSH1 0x20 DUP7 ADD PUSH2 0x473 JUMP JUMPDEST SWAP2 POP POP SWAP3 SWAP2 POP POP JUMP JUMPDEST PUSH1 0x0 PUSH1 0x20 DUP3 DUP5 SUB SLT ISZERO PUSH2 0x520 JUMPI PUSH2 0x51F PUSH2 0x272 JUMP JUMPDEST JUMPDEST PUSH1 0x0 DUP3 ADD CALLDATALOAD PUSH8 0xFFFFFFFFFFFFFFFF DUP2 GT ISZERO PUSH2 0x53E JUMPI PUSH2 0x53D PUSH2 0x277 JUMP JUMPDEST JUMPDEST PUSH2 0x54A DUP5 DUP3 DUP6 ADD PUSH2 0x4DC JUMP JUMPDEST SWAP2 POP POP SWAP3 SWAP2 POP POP JUMP JUMPDEST PUSH1 0x0 DUP2 MLOAD SWAP1 POP SWAP2 SWAP1 POP JUMP JUMPDEST PUSH1 0x0 DUP3 DUP3 MSTORE PUSH1 0x20 DUP3 ADD SWAP1 POP SWAP3 SWAP2 POP POP JUMP JUMPDEST PUSH1 0x0 DUP2 SWAP1 POP PUSH1 0x20 DUP3 ADD SWAP1 POP SWAP2 SWAP1 POP JUMP JUMPDEST PUSH2 0x588 DUP2 PUSH2 0x32E JUMP JUMPDEST DUP3 MSTORE POP POP JUMP JUMPDEST PUSH1 0x0 PUSH2 0x59A DUP4 DUP4 PUSH2 0x57F JUMP JUMPDEST PUSH1 0x20 DUP4 ADD SWAP1 POP SWAP3 SWAP2 POP POP JUMP JUMPDEST PUSH1 0x0 PUSH1 0x20 DUP3 ADD SWAP1 POP SWAP2 SWAP1 POP JUMP JUMPDEST PUSH1 0x0 PUSH2 0x5BE DUP3 PUSH2 0x553 JUMP JUMPDEST PUSH2 0x5C8 DUP2 DUP6 PUSH2 0x55E JUMP JUMPDEST SWAP4 POP PUSH2 0x5D3 DUP4 PUSH2 0x56F JUMP JUMPDEST DUP1 PUSH1 0x0 JUMPDEST DUP4 DUP2 LT ISZERO PUSH2 0x604 JUMPI DUP2 MLOAD PUSH2 0x5EB DUP9 DUP3 PUSH2 0x58E JUMP JUMPDEST SWAP8 POP PUSH2 0x5F6 DUP4 PUSH2 0x5A6 JUMP JUMPDEST SWAP3 POP POP PUSH1 0x1 DUP2 ADD SWAP1 POP PUSH2 0x5D7 JUMP JUMPDEST POP DUP6 SWAP4 POP POP POP POP SWAP3 SWAP2 POP POP JUMP JUMPDEST PUSH1 0x0 PUSH1 0x20 DUP3 ADD SWAP1 POP DUP2 DUP2 SUB PUSH1 0x0 DUP4 ADD MSTORE PUSH2 0x62B DUP2 DUP5 PUSH2 0x5B3 JUMP JUMPDEST SWAP1 POP SWAP3 SWAP2 POP POP JUMP JUMPDEST PUSH1 0x20 DUP3 ADD PUSH1 0x0 DUP3 ADD MLOAD PUSH2 0x649 PUSH1 0x0 DUP6 ADD DUP3 PUSH2 0x57F JUMP JUMPDEST POP POP POP POP JUMP JUMPDEST PUSH1 0x0 PUSH1 0x20 DUP3 ADD SWAP1 POP PUSH2 0x664 PUSH1 0x0 DUP4 ADD DUP5 PUSH2 0x633 JUMP JUMPDEST SWAP3 SWAP2 POP POP JUMP INVALID LOG2 PUSH5 0x6970667358 0x22 SLT KECCAK256 SWAP6 DUP6 CREATE 0xCC 0xB4 0xCF 0x1E 0xCB CODESIZE DIFFICULTY 0xBC 0x2D SLT PUSH1 0x9E DUP11 0xB4 0xD5 REVERT PUSH8 0x84DD313CB97E97C4 0x4B LOG4 0xCA DUP16 PUSH5 0x736F6C6343 STOP ADDMOD 0xD STOP CALLER "
				},
				"gasEstimates": {
					"creation": {
						"codeDepositCost": "339200",
						"executionCost": "374",
						"totalCost": "339574"
					},
					"external": {
						"arr(uint256)": "infinite",
						"f()": "24718",
						"g(uint256[])": "infinite",
						"getFoo(uint256)": "infinite",
						"getStruct(uint256)": "infinite",
						"h(uint256[])": "474"
					},
					"internal": {
						"_f(uint256[] storage pointer,mapping(uint256 => address),struct DataLocations.MyStruct storage pointer)": "15"
					}
				},
				"methodIdentifiers": {
					"arr(uint256)": "71e5ee5f",
					"f()": "26121ff0",
					"g(uint256[])": "baf71609",
					"getFoo(uint256)": "569703c9",
					"getStruct(uint256)": "cdfa8495",
					"h(uint256[])": "40dcbb08"
				}
			},
			"storageLayout": {
				"storage": [
					{
						"astId": 4,
						"contract": "basic_example/DataLocations.sol:DataLocations",
						"label": "arr",
						"offset": 0,
						"slot": "0",
						"type": "t_array(t_uint256)dyn_storage"
					},
					{
						"astId": 8,
						"contract": "basic_example/DataLocations.sol:DataLocations",
						"label": "map",
						"offset": 0,
						"slot": "1",
						"type": "t_mapping(t_uint256,t_address)"
					},
					{
						"astId": 16,
						"contract": "basic_example/DataLocations.sol:DataLocations",
						"label": "myStructs",
						"offset": 0,
						"slot": "2",
						"type": "t_mapping(t_uint256,t_struct(MyStruct)11_storage)"
					}
				],
				"types": {
					"t_address": {
						"encoding": "inplace",
						"label": "address",
						"numberOfBytes": "20"
					},
					"t_array(t_uint256)dyn_storage": {
						"base": "t_uint256",
						"encoding": "dynamic_array",
						"label": "uint256[]",
						"numberOfBytes": "32"
					},
					"t_mapping(t_uint256,t_address)": {
						"encoding": "mapping",
						"key": "t_uint256",
						"label": "mapping(uint256 => address)",
						"numberOfBytes": "32",
						"value": "t_address"
					},
					"t_mapping(t_uint256,t_struct(MyStruct)11_storage)": {
						"encoding": "mapping",
						"key": "t_uint256",
						"label": "mapping(uint256 => struct DataLocations.MyStruct)",
						"numberOfBytes": "32",
						"value": "t_struct(MyStruct)11_storage"
					},
					"t_struct(MyStruct)11_storage": {
						"encoding": "inplace",
						"label": "struct DataLocations.MyStruct",
						"members": [
							{
								"astId": 10,
								"contract": "basic_example/DataLocations.sol:DataLocations",
								"label": "foo",
								"offset": 0,
								"slot": "0",
								"type": "t_uint256"
							}
						],
						"numberOfBytes": "32"
					},
					"t_uint256": {
						"encoding": "inplace",
						"label": "uint256",
						"numberOfBytes": "32"
					}
				}
			},
			"userdoc": {
				"kind": "user",
				"methods": {},
				"version": 1
			}
		}
	}
}