{
	"basic_example/KVFunctionParam.sol": {
		"XYZ": {
			"abi": [
				{
					"inputs": [],
					"name": "callFunc",
					"outputs": [
						{
							"internalType": "uint256",
							"name": "",
							"type": "uint256"
						}
					],
					"stateMutability": "pure",
					"type": "function"
				},
				{
					"inputs": [],
					"name": "callFuncWithKeyValue",
					"outputs": [
						{
							"internalType": "uint256",
							"name": "",
							"type": "uint256"
						}
					],
					"stateMutability": "pure",
					"type": "function"
				},
				{
					"inputs": [
						{
							"internalType": "uint256",
							"name": "x",
							"type": "uint256"
						},
						{
							"internalType": "uint256",
							"name": "y",
							"type": "uint256"
						},
						{
							"internalType": "uint256",
							"name": "z",
							"type": "uint256"
						},
						{
							"internalType": "address",
							"name": "a",
							"type": "address"
						},
						{
							"internalType": "bool",
							"name": "b",
							"type": "bool"
						},
						{
							"internalType": "string",
							"name": "c",
							"type": "string"
						}
					],
					"name": "someFuncWithManyInputs",
					"outputs": [
						{
							"internalType": "uint256",
							"name": "",
							"type": "uint256"
						}
					],
					"stateMutability": "pure",
					"type": "function"
				}
			],
			"devdoc": {
				"kind": "dev",
				"methods": {},
				"version": 1
			},
			"evm": {
				"assembly": "    /* \"basic_example/KVFunctionParam.sol\":58:568  contract XYZ {... */\n  mstore(0x40, 0x80)\n  callvalue\n  dup1\n  iszero\n  tag_1\n  jumpi\n  0x00\n  dup1\n  revert\ntag_1:\n  pop\n  dataSize(sub_0)\n  dup1\n  dataOffset(sub_0)\n  0x00\n  codecopy\n  0x00\n  return\nstop\n\nsub_0: assembly {\n        /* \"basic_example/KVFunctionParam.sol\":58:568  contract XYZ {... */\n      mstore(0x40, 0x80)\n      callvalue\n      dup1\n      iszero\n      tag_1\n      jumpi\n      0x00\n      dup1\n      revert\n    tag_1:\n      pop\n      jumpi(tag_2, lt(calldatasize, 0x04))\n      shr(0xe0, calldataload(0x00))\n      dup1\n      0x127b4e08\n      eq\n      tag_3\n      jumpi\n      dup1\n      0x72057987\n      eq\n      tag_4\n      jumpi\n      dup1\n      0x9a7846b9\n      eq\n      tag_5\n      jumpi\n    tag_2:\n      0x00\n      dup1\n      revert\n        /* \"basic_example/KVFunctionParam.sol\":77:264  function someFuncWithManyInputs(... */\n    tag_3:\n      tag_6\n      0x04\n      dup1\n      calldatasize\n      sub\n      dup2\n      add\n      swap1\n      tag_7\n      swap2\n      swap1\n      tag_8\n      jump\t// in\n    tag_7:\n      tag_9\n      jump\t// in\n    tag_6:\n      mload(0x40)\n      tag_10\n      swap2\n      swap1\n      tag_11\n      jump\t// in\n    tag_10:\n      mload(0x40)\n      dup1\n      swap2\n      sub\n      swap1\n      return\n        /* \"basic_example/KVFunctionParam.sol\":403:561  function callFuncWithKeyValue() external pure returns (uint){... */\n    tag_4:\n      tag_12\n      tag_13\n      jump\t// in\n    tag_12:\n      mload(0x40)\n      tag_14\n      swap2\n      swap1\n      tag_11\n      jump\t// in\n    tag_14:\n      mload(0x40)\n      dup1\n      swap2\n      sub\n      swap1\n      return\n        /* \"basic_example/KVFunctionParam.sol\":270:397  function callFunc() external pure returns (uint) {... */\n    tag_5:\n      tag_15\n      tag_16\n      jump\t// in\n    tag_15:\n      mload(0x40)\n      tag_17\n      swap2\n      swap1\n      tag_11\n      jump\t// in\n    tag_17:\n      mload(0x40)\n      dup1\n      swap2\n      sub\n      swap1\n      return\n        /* \"basic_example/KVFunctionParam.sol\":77:264  function someFuncWithManyInputs(... */\n    tag_9:\n        /* \"basic_example/KVFunctionParam.sol\":253:260  uint256 */\n      0x00\n        /* \"basic_example/KVFunctionParam.sol\":77:264  function someFuncWithManyInputs(... */\n      swap7\n      swap6\n      pop\n      pop\n      pop\n      pop\n      pop\n      pop\n      jump\t// out\n        /* \"basic_example/KVFunctionParam.sol\":403:561  function callFuncWithKeyValue() external pure returns (uint){... */\n    tag_13:\n        /* \"basic_example/KVFunctionParam.sol\":458:462  uint */\n      0x00\n        /* \"basic_example/KVFunctionParam.sol\":480:554  someFuncWithManyInputs({a: address(0), b: true, c: \"c\", x: 1, y: 2, z: 3}) */\n      tag_20\n        /* \"basic_example/KVFunctionParam.sol\":539:540  1 */\n      0x01\n        /* \"basic_example/KVFunctionParam.sol\":545:546  2 */\n      0x02\n        /* \"basic_example/KVFunctionParam.sol\":551:552  3 */\n      0x03\n        /* \"basic_example/KVFunctionParam.sol\":515:516  0 */\n      0x00\n        /* \"basic_example/KVFunctionParam.sol\":522:526  true */\n      0x01\n        /* \"basic_example/KVFunctionParam.sol\":480:554  someFuncWithManyInputs({a: address(0), b: true, c: \"c\", x: 1, y: 2, z: 3}) */\n      mload(0x40)\n      dup1\n      0x40\n      add\n      0x40\n      mstore\n      dup1\n      0x01\n      dup2\n      mstore\n      0x20\n      add\n      0x6300000000000000000000000000000000000000000000000000000000000000\n      dup2\n      mstore\n      pop\n        /* \"basic_example/KVFunctionParam.sol\":480:502  someFuncWithManyInputs */\n      tag_9\n        /* \"basic_example/KVFunctionParam.sol\":480:554  someFuncWithManyInputs({a: address(0), b: true, c: \"c\", x: 1, y: 2, z: 3}) */\n      jump\t// in\n    tag_20:\n        /* \"basic_example/KVFunctionParam.sol\":473:554  return someFuncWithManyInputs({a: address(0), b: true, c: \"c\", x: 1, y: 2, z: 3}) */\n      swap1\n      pop\n        /* \"basic_example/KVFunctionParam.sol\":403:561  function callFuncWithKeyValue() external pure returns (uint){... */\n      swap1\n      jump\t// out\n        /* \"basic_example/KVFunctionParam.sol\":270:397  function callFunc() external pure returns (uint) {... */\n    tag_16:\n        /* \"basic_example/KVFunctionParam.sol\":313:317  uint */\n      0x00\n        /* \"basic_example/KVFunctionParam.sol\":336:390  someFuncWithManyInputs(1, 2, 3, address(0), true, \"c\") */\n      tag_22\n        /* \"basic_example/KVFunctionParam.sol\":359:360  1 */\n      0x01\n        /* \"basic_example/KVFunctionParam.sol\":362:363  2 */\n      0x02\n        /* \"basic_example/KVFunctionParam.sol\":365:366  3 */\n      0x03\n        /* \"basic_example/KVFunctionParam.sol\":376:377  0 */\n      0x00\n        /* \"basic_example/KVFunctionParam.sol\":380:384  true */\n      0x01\n        /* \"basic_example/KVFunctionParam.sol\":336:390  someFuncWithManyInputs(1, 2, 3, address(0), true, \"c\") */\n      mload(0x40)\n      dup1\n      0x40\n      add\n      0x40\n      mstore\n      dup1\n      0x01\n      dup2\n      mstore\n      0x20\n      add\n      0x6300000000000000000000000000000000000000000000000000000000000000\n      dup2\n      mstore\n      pop\n        /* \"basic_example/KVFunctionParam.sol\":336:358  someFuncWithManyInputs */\n      tag_9\n        /* \"basic_example/KVFunctionParam.sol\":336:390  someFuncWithManyInputs(1, 2, 3, address(0), true, \"c\") */\n      jump\t// in\n    tag_22:\n        /* \"basic_example/KVFunctionParam.sol\":329:390  return someFuncWithManyInputs(1, 2, 3, address(0), true, \"c\") */\n      swap1\n      pop\n        /* \"basic_example/KVFunctionParam.sol\":270:397  function callFunc() external pure returns (uint) {... */\n      swap1\n      jump\t// out\n        /* \"#utility.yul\":7:82   */\n    tag_23:\n        /* \"#utility.yul\":40:46   */\n      0x00\n        /* \"#utility.yul\":73:75   */\n      0x40\n        /* \"#utility.yul\":67:76   */\n      mload\n        /* \"#utility.yul\":57:76   */\n      swap1\n      pop\n        /* \"#utility.yul\":7:82   */\n      swap1\n      jump\t// out\n        /* \"#utility.yul\":88:205   */\n    tag_24:\n        /* \"#utility.yul\":197:198   */\n      0x00\n        /* \"#utility.yul\":194:195   */\n      dup1\n        /* \"#utility.yul\":187:199   */\n      revert\n        /* \"#utility.yul\":211:328   */\n    tag_25:\n        /* \"#utility.yul\":320:321   */\n      0x00\n        /* \"#utility.yul\":317:318   */\n      dup1\n        /* \"#utility.yul\":310:322   */\n      revert\n        /* \"#utility.yul\":334:411   */\n    tag_26:\n        /* \"#utility.yul\":371:378   */\n      0x00\n        /* \"#utility.yul\":400:405   */\n      dup2\n        /* \"#utility.yul\":389:405   */\n      swap1\n      pop\n        /* \"#utility.yul\":334:411   */\n      swap2\n      swap1\n      pop\n      jump\t// out\n        /* \"#utility.yul\":417:539   */\n    tag_27:\n        /* \"#utility.yul\":490:514   */\n      tag_53\n        /* \"#utility.yul\":508:513   */\n      dup2\n        /* \"#utility.yul\":490:514   */\n      tag_26\n      jump\t// in\n    tag_53:\n        /* \"#utility.yul\":483:488   */\n      dup2\n        /* \"#utility.yul\":480:515   */\n      eq\n        /* \"#utility.yul\":470:533   */\n      tag_54\n      jumpi\n        /* \"#utility.yul\":529:530   */\n      0x00\n        /* \"#utility.yul\":526:527   */\n      dup1\n        /* \"#utility.yul\":519:531   */\n      revert\n        /* \"#utility.yul\":470:533   */\n    tag_54:\n        /* \"#utility.yul\":417:539   */\n      pop\n      jump\t// out\n        /* \"#utility.yul\":545:684   */\n    tag_28:\n        /* \"#utility.yul\":591:596   */\n      0x00\n        /* \"#utility.yul\":629:635   */\n      dup2\n        /* \"#utility.yul\":616:636   */\n      calldataload\n        /* \"#utility.yul\":607:636   */\n      swap1\n      pop\n        /* \"#utility.yul\":645:678   */\n      tag_56\n        /* \"#utility.yul\":672:677   */\n      dup2\n        /* \"#utility.yul\":645:678   */\n      tag_27\n      jump\t// in\n    tag_56:\n        /* \"#utility.yul\":545:684   */\n      swap3\n      swap2\n      pop\n      pop\n      jump\t// out\n        /* \"#utility.yul\":690:816   */\n    tag_29:\n        /* \"#utility.yul\":727:734   */\n      0x00\n        /* \"#utility.yul\":767:809   */\n      0xffffffffffffffffffffffffffffffffffffffff\n        /* \"#utility.yul\":760:765   */\n      dup3\n        /* \"#utility.yul\":756:810   */\n      and\n        /* \"#utility.yul\":745:810   */\n      swap1\n      pop\n        /* \"#utility.yul\":690:816   */\n      swap2\n      swap1\n      pop\n      jump\t// out\n        /* \"#utility.yul\":822:918   */\n    tag_30:\n        /* \"#utility.yul\":859:866   */\n      0x00\n        /* \"#utility.yul\":888:912   */\n      tag_59\n        /* \"#utility.yul\":906:911   */\n      dup3\n        /* \"#utility.yul\":888:912   */\n      tag_29\n      jump\t// in\n    tag_59:\n        /* \"#utility.yul\":877:912   */\n      swap1\n      pop\n        /* \"#utility.yul\":822:918   */\n      swap2\n      swap1\n      pop\n      jump\t// out\n        /* \"#utility.yul\":924:1046   */\n    tag_31:\n        /* \"#utility.yul\":997:1021   */\n      tag_61\n        /* \"#utility.yul\":1015:1020   */\n      dup2\n        /* \"#utility.yul\":997:1021   */\n      tag_30\n      jump\t// in\n    tag_61:\n        /* \"#utility.yul\":990:995   */\n      dup2\n        /* \"#utility.yul\":987:1022   */\n      eq\n        /* \"#utility.yul\":977:1040   */\n      tag_62\n      jumpi\n        /* \"#utility.yul\":1036:1037   */\n      0x00\n        /* \"#utility.yul\":1033:1034   */\n      dup1\n        /* \"#utility.yul\":1026:1038   */\n      revert\n        /* \"#utility.yul\":977:1040   */\n    tag_62:\n        /* \"#utility.yul\":924:1046   */\n      pop\n      jump\t// out\n        /* \"#utility.yul\":1052:1191   */\n    tag_32:\n        /* \"#utility.yul\":1098:1103   */\n      0x00\n        /* \"#utility.yul\":1136:1142   */\n      dup2\n        /* \"#utility.yul\":1123:1143   */\n      calldataload\n        /* \"#utility.yul\":1114:1143   */\n      swap1\n      pop\n        /* \"#utility.yul\":1152:1185   */\n      tag_64\n        /* \"#utility.yul\":1179:1184   */\n      dup2\n        /* \"#utility.yul\":1152:1185   */\n      tag_31\n      jump\t// in\n    tag_64:\n        /* \"#utility.yul\":1052:1191   */\n      swap3\n      swap2\n      pop\n      pop\n      jump\t// out\n        /* \"#utility.yul\":1197:1287   */\n    tag_33:\n        /* \"#utility.yul\":1231:1238   */\n      0x00\n        /* \"#utility.yul\":1274:1279   */\n      dup2\n        /* \"#utility.yul\":1267:1280   */\n      iszero\n        /* \"#utility.yul\":1260:1281   */\n      iszero\n        /* \"#utility.yul\":1249:1281   */\n      swap1\n      pop\n        /* \"#utility.yul\":1197:1287   */\n      swap2\n      swap1\n      pop\n      jump\t// out\n        /* \"#utility.yul\":1293:1409   */\n    tag_34:\n        /* \"#utility.yul\":1363:1384   */\n      tag_67\n        /* \"#utility.yul\":1378:1383   */\n      dup2\n        /* \"#utility.yul\":1363:1384   */\n      tag_33\n      jump\t// in\n    tag_67:\n        /* \"#utility.yul\":1356:1361   */\n      dup2\n        /* \"#utility.yul\":1353:1385   */\n      eq\n        /* \"#utility.yul\":1343:1403   */\n      tag_68\n      jumpi\n        /* \"#utility.yul\":1399:1400   */\n      0x00\n        /* \"#utility.yul\":1396:1397   */\n      dup1\n        /* \"#utility.yul\":1389:1401   */\n      revert\n        /* \"#utility.yul\":1343:1403   */\n    tag_68:\n        /* \"#utility.yul\":1293:1409   */\n      pop\n      jump\t// out\n        /* \"#utility.yul\":1415:1548   */\n    tag_35:\n        /* \"#utility.yul\":1458:1463   */\n      0x00\n        /* \"#utility.yul\":1496:1502   */\n      dup2\n        /* \"#utility.yul\":1483:1503   */\n      calldataload\n        /* \"#utility.yul\":1474:1503   */\n      swap1\n      pop\n        /* \"#utility.yul\":1512:1542   */\n      tag_70\n        /* \"#utility.yul\":1536:1541   */\n      dup2\n        /* \"#utility.yul\":1512:1542   */\n      tag_34\n      jump\t// in\n    tag_70:\n        /* \"#utility.yul\":1415:1548   */\n      swap3\n      swap2\n      pop\n      pop\n      jump\t// out\n        /* \"#utility.yul\":1554:1671   */\n    tag_36:\n        /* \"#utility.yul\":1663:1664   */\n      0x00\n        /* \"#utility.yul\":1660:1661   */\n      dup1\n        /* \"#utility.yul\":1653:1665   */\n      revert\n        /* \"#utility.yul\":1677:1794   */\n    tag_37:\n        /* \"#utility.yul\":1786:1787   */\n      0x00\n        /* \"#utility.yul\":1783:1784   */\n      dup1\n        /* \"#utility.yul\":1776:1788   */\n      revert\n        /* \"#utility.yul\":1800:1902   */\n    tag_38:\n        /* \"#utility.yul\":1841:1847   */\n      0x00\n        /* \"#utility.yul\":1892:1894   */\n      0x1f\n        /* \"#utility.yul\":1888:1895   */\n      not\n        /* \"#utility.yul\":1883:1885   */\n      0x1f\n        /* \"#utility.yul\":1876:1881   */\n      dup4\n        /* \"#utility.yul\":1872:1886   */\n      add\n        /* \"#utility.yul\":1868:1896   */\n      and\n        /* \"#utility.yul\":1858:1896   */\n      swap1\n      pop\n        /* \"#utility.yul\":1800:1902   */\n      swap2\n      swap1\n      pop\n      jump\t// out\n        /* \"#utility.yul\":1908:2088   */\n    tag_39:\n        /* \"#utility.yul\":1956:2033   */\n      0x4e487b7100000000000000000000000000000000000000000000000000000000\n        /* \"#utility.yul\":1953:1954   */\n      0x00\n        /* \"#utility.yul\":1946:2034   */\n      mstore\n        /* \"#utility.yul\":2053:2057   */\n      0x41\n        /* \"#utility.yul\":2050:2051   */\n      0x04\n        /* \"#utility.yul\":2043:2058   */\n      mstore\n        /* \"#utility.yul\":2077:2081   */\n      0x24\n        /* \"#utility.yul\":2074:2075   */\n      0x00\n        /* \"#utility.yul\":2067:2082   */\n      revert\n        /* \"#utility.yul\":2094:2375   */\n    tag_40:\n        /* \"#utility.yul\":2177:2204   */\n      tag_76\n        /* \"#utility.yul\":2199:2203   */\n      dup3\n        /* \"#utility.yul\":2177:2204   */\n      tag_38\n      jump\t// in\n    tag_76:\n        /* \"#utility.yul\":2169:2175   */\n      dup2\n        /* \"#utility.yul\":2165:2205   */\n      add\n        /* \"#utility.yul\":2307:2313   */\n      dup2\n        /* \"#utility.yul\":2295:2305   */\n      dup2\n        /* \"#utility.yul\":2292:2314   */\n      lt\n        /* \"#utility.yul\":2271:2289   */\n      0xffffffffffffffff\n        /* \"#utility.yul\":2259:2269   */\n      dup3\n        /* \"#utility.yul\":2256:2290   */\n      gt\n        /* \"#utility.yul\":2253:2315   */\n      or\n        /* \"#utility.yul\":2250:2338   */\n      iszero\n      tag_77\n      jumpi\n        /* \"#utility.yul\":2318:2336   */\n      tag_78\n      tag_39\n      jump\t// in\n    tag_78:\n        /* \"#utility.yul\":2250:2338   */\n    tag_77:\n        /* \"#utility.yul\":2358:2368   */\n      dup1\n        /* \"#utility.yul\":2354:2356   */\n      0x40\n        /* \"#utility.yul\":2347:2369   */\n      mstore\n        /* \"#utility.yul\":2137:2375   */\n      pop\n        /* \"#utility.yul\":2094:2375   */\n      pop\n      pop\n      jump\t// out\n        /* \"#utility.yul\":2381:2510   */\n    tag_41:\n        /* \"#utility.yul\":2415:2421   */\n      0x00\n        /* \"#utility.yul\":2442:2462   */\n      tag_80\n      tag_23\n      jump\t// in\n    tag_80:\n        /* \"#utility.yul\":2432:2462   */\n      swap1\n      pop\n        /* \"#utility.yul\":2471:2504   */\n      tag_81\n        /* \"#utility.yul\":2499:2503   */\n      dup3\n        /* \"#utility.yul\":2491:2497   */\n      dup3\n        /* \"#utility.yul\":2471:2504   */\n      tag_40\n      jump\t// in\n    tag_81:\n        /* \"#utility.yul\":2381:2510   */\n      swap2\n      swap1\n      pop\n      jump\t// out\n        /* \"#utility.yul\":2516:2824   */\n    tag_42:\n        /* \"#utility.yul\":2578:2582   */\n      0x00\n        /* \"#utility.yul\":2668:2686   */\n      0xffffffffffffffff\n        /* \"#utility.yul\":2660:2666   */\n      dup3\n        /* \"#utility.yul\":2657:2687   */\n      gt\n        /* \"#utility.yul\":2654:2710   */\n      iszero\n      tag_83\n      jumpi\n        /* \"#utility.yul\":2690:2708   */\n      tag_84\n      tag_39\n      jump\t// in\n    tag_84:\n        /* \"#utility.yul\":2654:2710   */\n    tag_83:\n        /* \"#utility.yul\":2728:2757   */\n      tag_85\n        /* \"#utility.yul\":2750:2756   */\n      dup3\n        /* \"#utility.yul\":2728:2757   */\n      tag_38\n      jump\t// in\n    tag_85:\n        /* \"#utility.yul\":2720:2757   */\n      swap1\n      pop\n        /* \"#utility.yul\":2812:2816   */\n      0x20\n        /* \"#utility.yul\":2806:2810   */\n      dup2\n        /* \"#utility.yul\":2802:2817   */\n      add\n        /* \"#utility.yul\":2794:2817   */\n      swap1\n      pop\n        /* \"#utility.yul\":2516:2824   */\n      swap2\n      swap1\n      pop\n      jump\t// out\n        /* \"#utility.yul\":2830:2984   */\n    tag_43:\n        /* \"#utility.yul\":2914:2920   */\n      dup3\n        /* \"#utility.yul\":2909:2912   */\n      dup2\n        /* \"#utility.yul\":2904:2907   */\n      dup4\n        /* \"#utility.yul\":2891:2921   */\n      calldatacopy\n        /* \"#utility.yul\":2976:2977   */\n      0x00\n        /* \"#utility.yul\":2967:2973   */\n      dup4\n        /* \"#utility.yul\":2962:2965   */\n      dup4\n        /* \"#utility.yul\":2958:2974   */\n      add\n        /* \"#utility.yul\":2951:2978   */\n      mstore\n        /* \"#utility.yul\":2830:2984   */\n      pop\n      pop\n      pop\n      jump\t// out\n        /* \"#utility.yul\":2990:3402   */\n    tag_44:\n        /* \"#utility.yul\":3068:3073   */\n      0x00\n        /* \"#utility.yul\":3093:3159   */\n      tag_88\n        /* \"#utility.yul\":3109:3158   */\n      tag_89\n        /* \"#utility.yul\":3151:3157   */\n      dup5\n        /* \"#utility.yul\":3109:3158   */\n      tag_42\n      jump\t// in\n    tag_89:\n        /* \"#utility.yul\":3093:3159   */\n      tag_41\n      jump\t// in\n    tag_88:\n        /* \"#utility.yul\":3084:3159   */\n      swap1\n      pop\n        /* \"#utility.yul\":3182:3188   */\n      dup3\n        /* \"#utility.yul\":3175:3180   */\n      dup2\n        /* \"#utility.yul\":3168:3189   */\n      mstore\n        /* \"#utility.yul\":3220:3224   */\n      0x20\n        /* \"#utility.yul\":3213:3218   */\n      dup2\n        /* \"#utility.yul\":3209:3225   */\n      add\n        /* \"#utility.yul\":3258:3261   */\n      dup5\n        /* \"#utility.yul\":3249:3255   */\n      dup5\n        /* \"#utility.yul\":3244:3247   */\n      dup5\n        /* \"#utility.yul\":3240:3256   */\n      add\n        /* \"#utility.yul\":3237:3262   */\n      gt\n        /* \"#utility.yul\":3234:3346   */\n      iszero\n      tag_90\n      jumpi\n        /* \"#utility.yul\":3265:3344   */\n      tag_91\n      tag_37\n      jump\t// in\n    tag_91:\n        /* \"#utility.yul\":3234:3346   */\n    tag_90:\n        /* \"#utility.yul\":3355:3396   */\n      tag_92\n        /* \"#utility.yul\":3389:3395   */\n      dup5\n        /* \"#utility.yul\":3384:3387   */\n      dup3\n        /* \"#utility.yul\":3379:3382   */\n      dup6\n        /* \"#utility.yul\":3355:3396   */\n      tag_43\n      jump\t// in\n    tag_92:\n        /* \"#utility.yul\":3074:3402   */\n      pop\n        /* \"#utility.yul\":2990:3402   */\n      swap4\n      swap3\n      pop\n      pop\n      pop\n      jump\t// out\n        /* \"#utility.yul\":3422:3762   */\n    tag_45:\n        /* \"#utility.yul\":3478:3483   */\n      0x00\n        /* \"#utility.yul\":3527:3530   */\n      dup3\n        /* \"#utility.yul\":3520:3524   */\n      0x1f\n        /* \"#utility.yul\":3512:3518   */\n      dup4\n        /* \"#utility.yul\":3508:3525   */\n      add\n        /* \"#utility.yul\":3504:3531   */\n      slt\n        /* \"#utility.yul\":3494:3616   */\n      tag_94\n      jumpi\n        /* \"#utility.yul\":3535:3614   */\n      tag_95\n      tag_36\n      jump\t// in\n    tag_95:\n        /* \"#utility.yul\":3494:3616   */\n    tag_94:\n        /* \"#utility.yul\":3652:3658   */\n      dup2\n        /* \"#utility.yul\":3639:3659   */\n      calldataload\n        /* \"#utility.yul\":3677:3756   */\n      tag_96\n        /* \"#utility.yul\":3752:3755   */\n      dup5\n        /* \"#utility.yul\":3744:3750   */\n      dup3\n        /* \"#utility.yul\":3737:3741   */\n      0x20\n        /* \"#utility.yul\":3729:3735   */\n      dup7\n        /* \"#utility.yul\":3725:3742   */\n      add\n        /* \"#utility.yul\":3677:3756   */\n      tag_44\n      jump\t// in\n    tag_96:\n        /* \"#utility.yul\":3668:3756   */\n      swap2\n      pop\n        /* \"#utility.yul\":3484:3762   */\n      pop\n        /* \"#utility.yul\":3422:3762   */\n      swap3\n      swap2\n      pop\n      pop\n      jump\t// out\n        /* \"#utility.yul\":3768:4999   */\n    tag_8:\n        /* \"#utility.yul\":3879:3885   */\n      0x00\n        /* \"#utility.yul\":3887:3893   */\n      dup1\n        /* \"#utility.yul\":3895:3901   */\n      0x00\n        /* \"#utility.yul\":3903:3909   */\n      dup1\n        /* \"#utility.yul\":3911:3917   */\n      0x00\n        /* \"#utility.yul\":3919:3925   */\n      dup1\n        /* \"#utility.yul\":3968:3971   */\n      0xc0\n        /* \"#utility.yul\":3956:3965   */\n      dup8\n        /* \"#utility.yul\":3947:3954   */\n      dup10\n        /* \"#utility.yul\":3943:3966   */\n      sub\n        /* \"#utility.yul\":3939:3972   */\n      slt\n        /* \"#utility.yul\":3936:4056   */\n      iszero\n      tag_98\n      jumpi\n        /* \"#utility.yul\":3975:4054   */\n      tag_99\n      tag_24\n      jump\t// in\n    tag_99:\n        /* \"#utility.yul\":3936:4056   */\n    tag_98:\n        /* \"#utility.yul\":4095:4096   */\n      0x00\n        /* \"#utility.yul\":4120:4173   */\n      tag_100\n        /* \"#utility.yul\":4165:4172   */\n      dup10\n        /* \"#utility.yul\":4156:4162   */\n      dup3\n        /* \"#utility.yul\":4145:4154   */\n      dup11\n        /* \"#utility.yul\":4141:4163   */\n      add\n        /* \"#utility.yul\":4120:4173   */\n      tag_28\n      jump\t// in\n    tag_100:\n        /* \"#utility.yul\":4110:4173   */\n      swap7\n      pop\n        /* \"#utility.yul\":4066:4183   */\n      pop\n        /* \"#utility.yul\":4222:4224   */\n      0x20\n        /* \"#utility.yul\":4248:4301   */\n      tag_101\n        /* \"#utility.yul\":4293:4300   */\n      dup10\n        /* \"#utility.yul\":4284:4290   */\n      dup3\n        /* \"#utility.yul\":4273:4282   */\n      dup11\n        /* \"#utility.yul\":4269:4291   */\n      add\n        /* \"#utility.yul\":4248:4301   */\n      tag_28\n      jump\t// in\n    tag_101:\n        /* \"#utility.yul\":4238:4301   */\n      swap6\n      pop\n        /* \"#utility.yul\":4193:4311   */\n      pop\n        /* \"#utility.yul\":4350:4352   */\n      0x40\n        /* \"#utility.yul\":4376:4429   */\n      tag_102\n        /* \"#utility.yul\":4421:4428   */\n      dup10\n        /* \"#utility.yul\":4412:4418   */\n      dup3\n        /* \"#utility.yul\":4401:4410   */\n      dup11\n        /* \"#utility.yul\":4397:4419   */\n      add\n        /* \"#utility.yul\":4376:4429   */\n      tag_28\n      jump\t// in\n    tag_102:\n        /* \"#utility.yul\":4366:4429   */\n      swap5\n      pop\n        /* \"#utility.yul\":4321:4439   */\n      pop\n        /* \"#utility.yul\":4478:4480   */\n      0x60\n        /* \"#utility.yul\":4504:4557   */\n      tag_103\n        /* \"#utility.yul\":4549:4556   */\n      dup10\n        /* \"#utility.yul\":4540:4546   */\n      dup3\n        /* \"#utility.yul\":4529:4538   */\n      dup11\n        /* \"#utility.yul\":4525:4547   */\n      add\n        /* \"#utility.yul\":4504:4557   */\n      tag_32\n      jump\t// in\n    tag_103:\n        /* \"#utility.yul\":4494:4557   */\n      swap4\n      pop\n        /* \"#utility.yul\":4449:4567   */\n      pop\n        /* \"#utility.yul\":4606:4609   */\n      0x80\n        /* \"#utility.yul\":4633:4683   */\n      tag_104\n        /* \"#utility.yul\":4675:4682   */\n      dup10\n        /* \"#utility.yul\":4666:4672   */\n      dup3\n        /* \"#utility.yul\":4655:4664   */\n      dup11\n        /* \"#utility.yul\":4651:4673   */\n      add\n        /* \"#utility.yul\":4633:4683   */\n      tag_35\n      jump\t// in\n    tag_104:\n        /* \"#utility.yul\":4623:4683   */\n      swap3\n      pop\n        /* \"#utility.yul\":4577:4693   */\n      pop\n        /* \"#utility.yul\":4760:4763   */\n      0xa0\n        /* \"#utility.yul\":4749:4758   */\n      dup8\n        /* \"#utility.yul\":4745:4764   */\n      add\n        /* \"#utility.yul\":4732:4765   */\n      calldataload\n        /* \"#utility.yul\":4792:4810   */\n      0xffffffffffffffff\n        /* \"#utility.yul\":4784:4790   */\n      dup2\n        /* \"#utility.yul\":4781:4811   */\n      gt\n        /* \"#utility.yul\":4778:4895   */\n      iszero\n      tag_105\n      jumpi\n        /* \"#utility.yul\":4814:4893   */\n      tag_106\n      tag_25\n      jump\t// in\n    tag_106:\n        /* \"#utility.yul\":4778:4895   */\n    tag_105:\n        /* \"#utility.yul\":4919:4982   */\n      tag_107\n        /* \"#utility.yul\":4974:4981   */\n      dup10\n        /* \"#utility.yul\":4965:4971   */\n      dup3\n        /* \"#utility.yul\":4954:4963   */\n      dup11\n        /* \"#utility.yul\":4950:4972   */\n      add\n        /* \"#utility.yul\":4919:4982   */\n      tag_45\n      jump\t// in\n    tag_107:\n        /* \"#utility.yul\":4909:4982   */\n      swap2\n      pop\n        /* \"#utility.yul\":4703:4992   */\n      pop\n        /* \"#utility.yul\":3768:4999   */\n      swap3\n      swap6\n      pop\n      swap3\n      swap6\n      pop\n      swap3\n      swap6\n      jump\t// out\n        /* \"#utility.yul\":5005:5123   */\n    tag_46:\n        /* \"#utility.yul\":5092:5116   */\n      tag_109\n        /* \"#utility.yul\":5110:5115   */\n      dup2\n        /* \"#utility.yul\":5092:5116   */\n      tag_26\n      jump\t// in\n    tag_109:\n        /* \"#utility.yul\":5087:5090   */\n      dup3\n        /* \"#utility.yul\":5080:5117   */\n      mstore\n        /* \"#utility.yul\":5005:5123   */\n      pop\n      pop\n      jump\t// out\n        /* \"#utility.yul\":5129:5351   */\n    tag_11:\n        /* \"#utility.yul\":5222:5226   */\n      0x00\n        /* \"#utility.yul\":5260:5262   */\n      0x20\n        /* \"#utility.yul\":5249:5258   */\n      dup3\n        /* \"#utility.yul\":5245:5263   */\n      add\n        /* \"#utility.yul\":5237:5263   */\n      swap1\n      pop\n        /* \"#utility.yul\":5273:5344   */\n      tag_111\n        /* \"#utility.yul\":5341:5342   */\n      0x00\n        /* \"#utility.yul\":5330:5339   */\n      dup4\n        /* \"#utility.yul\":5326:5343   */\n      add\n        /* \"#utility.yul\":5317:5323   */\n      dup5\n        /* \"#utility.yul\":5273:5344   */\n      tag_46\n      jump\t// in\n    tag_111:\n        /* \"#utility.yul\":5129:5351   */\n      swap3\n      swap2\n      pop\n      pop\n      jump\t// out\n\n    auxdata: 0xa2646970667358221220405ff5088583b8ad839db09ed3d33f376a3865326c8963851b757bf778e43ae764736f6c634300080d0033\n}\n",
				"bytecode": {
					"linkReferences": {},
					"object": "608060405234801561001057600080fd5b5061048b806100206000396000f3fe608060405234801561001057600080fd5b50600436106100415760003560e01c8063127b4e081461004657806372057987146100765780639a7846b914610094575b600080fd5b610060600480360381019061005b9190610382565b6100b2565b60405161006d919061043a565b60405180910390f35b61007e6100be565b60405161008b919061043a565b60405180910390f35b61009c61010d565b6040516100a9919061043a565b60405180910390f35b60009695505050505050565b6000610108600160026003600060016040518060400160405280600181526020017f63000000000000000000000000000000000000000000000000000000000000008152506100b2565b905090565b6000610157600160026003600060016040518060400160405280600181526020017f63000000000000000000000000000000000000000000000000000000000000008152506100b2565b905090565b6000604051905090565b600080fd5b600080fd5b6000819050919050565b61018381610170565b811461018e57600080fd5b50565b6000813590506101a08161017a565b92915050565b600073ffffffffffffffffffffffffffffffffffffffff82169050919050565b60006101d1826101a6565b9050919050565b6101e1816101c6565b81146101ec57600080fd5b50565b6000813590506101fe816101d8565b92915050565b60008115159050919050565b61021981610204565b811461022457600080fd5b50565b60008135905061023681610210565b92915050565b600080fd5b600080fd5b6000601f19601f8301169050919050565b7f4e487b7100000000000000000000000000000000000000000000000000000000600052604160045260246000fd5b61028f82610246565b810181811067ffffffffffffffff821117156102ae576102ad610257565b5b80604052505050565b60006102c161015c565b90506102cd8282610286565b919050565b600067ffffffffffffffff8211156102ed576102ec610257565b5b6102f682610246565b9050602081019050919050565b82818337600083830152505050565b6000610325610320846102d2565b6102b7565b90508281526020810184848401111561034157610340610241565b5b61034c848285610303565b509392505050565b600082601f8301126103695761036861023c565b5b8135610379848260208601610312565b91505092915050565b60008060008060008060c0878903121561039f5761039e610166565b5b60006103ad89828a01610191565b96505060206103be89828a01610191565b95505060406103cf89828a01610191565b94505060606103e089828a016101ef565b93505060806103f189828a01610227565b92505060a087013567ffffffffffffffff8111156104125761041161016b565b5b61041e89828a01610354565b9150509295509295509295565b61043481610170565b82525050565b600060208201905061044f600083018461042b565b9291505056fea2646970667358221220405ff5088583b8ad839db09ed3d33f376a3865326c8963851b757bf778e43ae764736f6c634300080d0033",
					"opcodes": "PUSH1 0x80 PUSH1 0x40 MSTORE CALLVALUE DUP1 ISZERO PUSH2 0x10 JUMPI PUSH1 0x0 DUP1 REVERT JUMPDEST POP PUSH2 0x48B DUP1 PUSH2 0x20 PUSH1 0x0 CODECOPY PUSH1 0x0 RETURN INVALID PUSH1 0x80 PUSH1 0x40 MSTORE CALLVALUE DUP1 ISZERO PUSH2 0x10 JUMPI PUSH1 0x0 DUP1 REVERT JUMPDEST POP PUSH1 0x4 CALLDATASIZE LT PUSH2 0x41 JUMPI PUSH1 0x0 CALLDATALOAD PUSH1 0xE0 SHR DUP1 PUSH4 0x127B4E08 EQ PUSH2 0x46 JUMPI DUP1 PUSH4 0x72057987 EQ PUSH2 0x76 JUMPI DUP1 PUSH4 0x9A7846B9 EQ PUSH2 0x94 JUMPI JUMPDEST PUSH1 0x0 DUP1 REVERT JUMPDEST PUSH2 0x60 PUSH1 0x4 DUP1 CALLDATASIZE SUB DUP2 ADD SWAP1 PUSH2 0x5B SWAP2 SWAP1 PUSH2 0x382 JUMP JUMPDEST PUSH2 0xB2 JUMP JUMPDEST PUSH1 0x40 MLOAD PUSH2 0x6D SWAP2 SWAP1 PUSH2 0x43A JUMP JUMPDEST PUSH1 0x40 MLOAD DUP1 SWAP2 SUB SWAP1 RETURN JUMPDEST PUSH2 0x7E PUSH2 0xBE JUMP JUMPDEST PUSH1 0x40 MLOAD PUSH2 0x8B SWAP2 SWAP1 PUSH2 0x43A JUMP JUMPDEST PUSH1 0x40 MLOAD DUP1 SWAP2 SUB SWAP1 RETURN JUMPDEST PUSH2 0x9C PUSH2 0x10D JUMP JUMPDEST PUSH1 0x40 MLOAD PUSH2 0xA9 SWAP2 SWAP1 PUSH2 0x43A JUMP JUMPDEST PUSH1 0x40 MLOAD DUP1 SWAP2 SUB SWAP1 RETURN JUMPDEST PUSH1 0x0 SWAP7 SWAP6 POP POP POP POP POP POP JUMP JUMPDEST PUSH1 0x0 PUSH2 0x108 PUSH1 0x1 PUSH1 0x2 PUSH1 0x3 PUSH1 0x0 PUSH1 0x1 PUSH1 0x40 MLOAD DUP1 PUSH1 0x40 ADD PUSH1 0x40 MSTORE DUP1 PUSH1 0x1 DUP2 MSTORE PUSH1 0x20 ADD PUSH32 0x6300000000000000000000000000000000000000000000000000000000000000 DUP2 MSTORE POP PUSH2 0xB2 JUMP JUMPDEST SWAP1 POP SWAP1 JUMP JUMPDEST PUSH1 0x0 PUSH2 0x157 PUSH1 0x1 PUSH1 0x2 PUSH1 0x3 PUSH1 0x0 PUSH1 0x1 PUSH1 0x40 MLOAD DUP1 PUSH1 0x40 ADD PUSH1 0x40 MSTORE DUP1 PUSH1 0x1 DUP2 MSTORE PUSH1 0x20 ADD PUSH32 0x6300000000000000000000000000000000000000000000000000000000000000 DUP2 MSTORE POP PUSH2 0xB2 JUMP JUMPDEST SWAP1 POP SWAP1 JUMP JUMPDEST PUSH1 0x0 PUSH1 0x40 MLOAD SWAP1 POP SWAP1 JUMP JUMPDEST PUSH1 0x0 DUP1 REVERT JUMPDEST PUSH1 0x0 DUP1 REVERT JUMPDEST PUSH1 0x0 DUP2 SWAP1 POP SWAP2 SWAP1 POP JUMP JUMPDEST PUSH2 0x183 DUP2 PUSH2 0x170 JUMP JUMPDEST DUP2 EQ PUSH2 0x18E JUMPI PUSH1 0x0 DUP1 REVERT JUMPDEST POP JUMP JUMPDEST PUSH1 0x0 DUP2 CALLDATALOAD SWAP1 POP PUSH2 0x1A0 DUP2 PUSH2 0x17A JUMP JUMPDEST SWAP3 SWAP2 POP POP JUMP JUMPDEST PUSH1 0x0 PUSH20 0xFFFFFFFFFFFFFFFFFFFFFFFFFFFFFFFFFFFFFFFF DUP3 AND SWAP1 POP SWAP2 SWAP1 POP JUMP JUMPDEST PUSH1 0x0 PUSH2 0x1D1 DUP3 PUSH2 0x1A6 JUMP JUMPDEST SWAP1 POP SWAP2 SWAP1 POP JUMP JUMPDEST PUSH2 0x1E1 DUP2 PUSH2 0x1C6 JUMP JUMPDEST DUP2 EQ PUSH2 0x1EC JUMPI PUSH1 0x0 DUP1 REVERT JUMPDEST POP JUMP JUMPDEST PUSH1 0x0 DUP2 CALLDATALOAD SWAP1 POP PUSH2 0x1FE DUP2 PUSH2 0x1D8 JUMP JUMPDEST SWAP3 SWAP2 POP POP JUMP JUMPDEST PUSH1 0x0 DUP2 ISZERO ISZERO SWAP1 POP SWAP2 SWAP1 POP JUMP JUMPDEST PUSH2 0x219 DUP2 PUSH2 0x204 JUMP JUMPDEST DUP2 EQ PUSH2 0x224 JUMPI PUSH1 0x0 DUP1 REVERT JUMPDEST POP JUMP JUMPDEST PUSH1 0x0 DUP2 CALLDATALOAD SWAP1 POP PUSH2 0x236 DUP2 PUSH2 0x210 JUMP JUMPDEST SWAP3 SWAP2 POP POP JUMP JUMPDEST PUSH1 0x0 DUP1 REVERT JUMPDEST PUSH1 0x0 DUP1 REVERT JUMPDEST PUSH1 0x0 PUSH1 0x1F NOT PUSH1 0x1F DUP4 ADD AND SWAP1 POP SWAP2 SWAP1 POP JUMP JUMPDEST PUSH32 0x4E487B7100000000000000000000000000000000000000000000000000000000 PUSH1 0x0 MSTORE PUSH1 0x41 PUSH1 0x4 MSTORE PUSH1 0x24 PUSH1 0x0 REVERT JUMPDEST PUSH2 0x28F DUP3 PUSH2 0x246 JUMP JUMPDEST DUP2 ADD DUP2 DUP2 LT PUSH8 0xFFFFFFFFFFFFFFFF DUP3 GT OR ISZERO PUSH2 0x2AE JUMPI PUSH2 0x2AD PUSH2 0x257 JUMP JUMPDEST JUMPDEST DUP1 PUSH1 0x40 MSTORE POP POP POP JUMP JUMPDEST PUSH1 0x0 PUSH2 0x2C1 PUSH2 0x15C JUMP JUMPDEST SWAP1 POP PUSH2 0x2CD DUP3 DUP3 PUSH2 0x286 JUMP JUMPDEST SWAP2 SWAP1 POP JUMP JUMPDEST PUSH1 0x0 PUSH8 0xFFFFFFFFFFFFFFFF DUP3 GT ISZERO PUSH2 0x2ED JUMPI PUSH2 0x2EC PUSH2 0x257 JUMP JUMPDEST JUMPDEST PUSH2 0x2F6 DUP3 PUSH2 0x246 JUMP JUMPDEST SWAP1 POP PUSH1 0x20 DUP2 ADD SWAP1 POP SWAP2 SWAP1 POP JUMP JUMPDEST DUP3 DUP2 DUP4 CALLDATACOPY PUSH1 0x0 DUP4 DUP4 ADD MSTORE POP POP POP JUMP JUMPDEST PUSH1 0x0 PUSH2 0x325 PUSH2 0x320 DUP5 PUSH2 0x2D2 JUMP JUMPDEST PUSH2 0x2B7 JUMP JUMPDEST SWAP1 POP DUP3 DUP2 MSTORE PUSH1 0x20 DUP2 ADD DUP5 DUP5 DUP5 ADD GT ISZERO PUSH2 0x341 JUMPI PUSH2 0x340 PUSH2 0x241 JUMP JUMPDEST JUMPDEST PUSH2 0x34C DUP5 DUP3 DUP6 PUSH2 0x303 JUMP JUMPDEST POP SWAP4 SWAP3 POP POP POP JUMP JUMPDEST PUSH1 0x0 DUP3 PUSH1 0x1F DUP4 ADD SLT PUSH2 0x369 JUMPI PUSH2 0x368 PUSH2 0x23C JUMP JUMPDEST JUMPDEST DUP2 CALLDATALOAD PUSH2 0x379 DUP5 DUP3 PUSH1 0x20 DUP7 ADD PUSH2 0x312 JUMP JUMPDEST SWAP2 POP POP SWAP3 SWAP2 POP POP JUMP JUMPDEST PUSH1 0x0 DUP1 PUSH1 0x0 DUP1 PUSH1 0x0 DUP1 PUSH1 0xC0 DUP8 DUP10 SUB SLT ISZERO PUSH2 0x39F JUMPI PUSH2 0x39E PUSH2 0x166 JUMP JUMPDEST JUMPDEST PUSH1 0x0 PUSH2 0x3AD DUP10 DUP3 DUP11 ADD PUSH2 0x191 JUMP JUMPDEST SWAP7 POP POP PUSH1 0x20 PUSH2 0x3BE DUP10 DUP3 DUP11 ADD PUSH2 0x191 JUMP JUMPDEST SWAP6 POP POP PUSH1 0x40 PUSH2 0x3CF DUP10 DUP3 DUP11 ADD PUSH2 0x191 JUMP JUMPDEST SWAP5 POP POP PUSH1 0x60 PUSH2 0x3E0 DUP10 DUP3 DUP11 ADD PUSH2 0x1EF JUMP JUMPDEST SWAP4 POP POP PUSH1 0x80 PUSH2 0x3F1 DUP10 DUP3 DUP11 ADD PUSH2 0x227 JUMP JUMPDEST SWAP3 POP POP PUSH1 0xA0 DUP8 ADD CALLDATALOAD PUSH8 0xFFFFFFFFFFFFFFFF DUP2 GT ISZERO PUSH2 0x412 JUMPI PUSH2 0x411 PUSH2 0x16B JUMP JUMPDEST JUMPDEST PUSH2 0x41E DUP10 DUP3 DUP11 ADD PUSH2 0x354 JUMP JUMPDEST SWAP2 POP POP SWAP3 SWAP6 POP SWAP3 SWAP6 POP SWAP3 SWAP6 JUMP JUMPDEST PUSH2 0x434 DUP2 PUSH2 0x170 JUMP JUMPDEST DUP3 MSTORE POP POP JUMP JUMPDEST PUSH1 0x0 PUSH1 0x20 DUP3 ADD SWAP1 POP PUSH2 0x44F PUSH1 0x0 DUP4 ADD DUP5 PUSH2 0x42B JUMP JUMPDEST SWAP3 SWAP2 POP POP JUMP INVALID LOG2 PUSH5 0x6970667358 0x22 SLT KECCAK256 BLOCKHASH 0x5F CREATE2 ADDMOD DUP6 DUP4 0xB8 0xAD DUP4 SWAP14 0xB0 SWAP15 0xD3 0xD3 EXTCODEHASH CALLDATACOPY PUSH11 0x3865326C8963851B757BF7 PUSH25 0xE43AE764736F6C634300080D00330000000000000000000000 "
				},
				"gasEstimates": {
					"creation": {
						"codeDepositCost": "232600",
						"executionCost": "275",
						"totalCost": "232875"
					},
					"external": {
						"callFunc()": "472",
						"callFuncWithKeyValue()": "450",
						"someFuncWithManyInputs(uint256,uint256,uint256,address,bool,string)": "infinite"
					}
				},
				"methodIdentifiers": {
					"callFunc()": "9a7846b9",
					"callFuncWithKeyValue()": "72057987",
					"someFuncWithManyInputs(uint256,uint256,uint256,address,bool,string)": "127b4e08"
				}
			},
			"storageLayout": {
				"storage": [],
				"types": null
			},
			"userdoc": {
				"kind": "user",
				"methods": {},
				"version": 1
			}
		}
	}
}